:020000040800F2
:10000000287500209D010008A5010008A70100082F
:10001000A9010008AB010008AD01000800000000C4
:10002000000000000000000000000000AF01000818
:10003000B101000800000000B3010008C921020856
:10004000B7010008B7010008B7010008B7010008B0
:10005000B7010008B7010008B7010008B7010008A0
:10006000B7010008B7010008B7010008B701000890
:10007000B7010008B7010008B7010008B701000880
:10008000B7010008B7010008B7010008B701000870
:10009000B7010008B7010008B7010008B701000860
:1000A000B7010008B7010008B7010008B701000850
:1000B000B7010008B7010008B7010008B701000840
:1000C000B7010008B7010008B7010008B701000830
:1000D000B7010008B7010008D12702080928020863
:1000E00071770008B7010008B7010008B7010008E0
:1000F000B7010008B7010008B7010008B701000800
:10010000B7010008B7010008B7010008B7010008EF
:10011000B7010008B7010008B7010008B7010008DF
:10012000B7010008B7010008B7010008B7010008CF
:10013000B7010008B7010008B7010008B7010008BF
:10014000B7010008B7010008B7010008B7010008AF
:10015000B7010008B7010008B7010008B70100089F
:10016000B7010008B7010008B7010008B70100088F
:10017000B7010008B7010008B7010008B70100087F
:10018000B7010008B7010008DFF80CD000F0FEFA54
:10019000004800476B710208287500200648804718
:1001A00006480047FEE7FEE7FEE7FEE7FEE7FEE75C
:1001B000FEE7FEE7FEE7FEE7D92102088901000815
:1001C00010B5431A934209D28318881803E010F837
:1001D000011D03F8011D521EF9D210BD40EA0103B2
:1001E0009B0703D009E008C9121F08C0042AFAD2ED
:1001F00003E011F8013B00F8013B521EF9D210BD9B
:10020000D2B201E000F8012B491EFBD27047002258
:10021000F6E710B513460A4604461946FFF7F0FF05
:10022000204610BD421C10F8011B0029FBD1801A8A
:10023000704730B504460020034600E05B1C934243
:1002400003D2E05CCD5C401BF8D030BD034611F812
:10025000012B00F8012B002AF9D1184670472DE92F
:10026000F04D81EA030404F0004B21F000451446F0
:100270004FF0000A23F0004150EA050220D054EA72
:1002800001021DD0C5F30A570246C5F31303C1F39B
:100290001300C1F30A5640F4801543F48013A7EB12
:1002A0000608101BD64608F2FD3873EB050002D392
:1002B00008F1010801E092185B41B8F1000F03DA80
:1002C00000200146BDE8F08D00204FF48011064665
:1002D00084460EE0171B73EB050705D3121B63EB77
:1002E000050306434CEA010C49084FEA3000921816
:1002F0005B4150EA0107EDD152EA030012D082EAD5
:10030000040083EA0501084305D0101BAB4106D267
:100310000122002306E000224FF0004302E06FF0CC
:10032000010253101AEB06004CEB085110EB0A00C7
:1003300041EB0B01BDE8F04D00F081B80EB5C10FE7
:1003400080EAE0700844CA07002140F233438DE898
:100350000E000A460B4600F081F803B000BDC1F361
:100360000A5210B5C1F3130140F2FF3341F480117A
:100370009A4201DA002010BD40F233439A42A2F2C1
:10038000334203DC524200F04AF810BD904010BDE9
:1003900030B50B46014600202022012409E021FA55
:1003A00002F59D4205D303FA02F5491B04FA02F552
:1003B0002844151EA2F10102F1DC30BD2DE9F05FE9
:1003C0000546002092469B468846064681464024C4
:1003D0001BE0284641464746224600F020F8534697
:1003E0005A46C01A914110D311461846224600F0D1
:1003F000DFF92D1A67EB01084F4622460120002144
:1004000000F0D6F917EB00094E41201EA4F10104BB
:10041000DFDC484631462A464346BDE8F09F202AA5
:1004200004DB203A21FA02F00021704721FA02F39E
:10043000D040C2F12002914008431946704710B5E0
:10044000141E73F1000408DA401C41F100019218F7
:100450005B411A4301D120F0010010BD2DE9F04DA0
:1004600092469B4611B1B1FA81F202E0B0FA80F2F5
:100470002032904600F09CF904460F4640EA0A00FC
:1004800041EA0B0153465A46084313D0114653EA3A
:10049000010019D0C8F140025046FFF7C0FF0546E1
:1004A0000E4650465946424600F082F9084305D0B0
:1004B000012004E020463946BDE8F08D00200543C8
:1004C00046EAE0762C4337430A986305E40AA0EB3A
:1004D00008000022FD0A44EA47540A3002D50020F1
:1004E0000146E9E7010510196941DDE908450019F0
:1004F0006941BDE8F04DA2E72DE9FE4F804681EA53
:100500000300C00F0C46009021F0004123F000458D
:10051000B8EB0200A94105D24046214690461C4650
:100520000B46024623F00040104347D0270DC7F387
:100530000A00C3F30A510290401A019040286BDA76
:10054000C3F3130040F4801B0098924620B10023AF
:10055000D2EB030A63EB0B0B01985946C0F1400242
:10056000504600F025F906460D4650465946019A78
:1005700000F02DF910EB08006141002487EA1152C8
:1005800084EAE7731A4340D0009A62B3019A012AC1
:100590004FEA075215DC001B61EB02014FF00042ED
:1005A00002EA0752CDE90042001C41F580113246B3
:1005B0002B46FFF753FF03B0BDE8F08F40462146BE
:1005C000F9E7001B61EB0201001C41F580130018E4
:1005D0005B412018A2F5001747EB030140EAD570F4
:1005E000B6196D4111E06D084FEA360645EAC0754F
:1005F0004FEA0752001B61EB0201001C41F580111C
:1006000049084FEA30000019514132462B4603B0E9
:10061000BDE8F04FFFF713BF009801224000002310
:10062000D0EB020263EBE073009821464FEAE074DE
:10063000B8EB000061EB0401E9E783F000435BE7FE
:1006400081F0004158E72DE9FE4F81EA030404F0F0
:10065000004421F0004100944FF0000B23F00043D0
:1006600050EA01045ED052EA03045BD0C3F30A549B
:10067000C1F30A552C44A4F2F3340194A0FB0254B4
:10068000C1F3130141F48011C3F3130343F4801346
:1006900001FB024400FB034E840A970A44EA81549A
:1006A00047EA8357A4FB076802958D0A05FB078577
:1006B0004FEA932C04FB0C542705029D4FEA065881
:1006C00047EA1637B5EB08056EEB070C870E920E5E
:1006D00047EA811742EA8312A7FB0201B6EB0B013E
:1006E00064EB00042B0D43EA0C335E1844EB1C5002
:1006F000DA465146E7FB0201C5F313044FEA0B3318
:1007000043EA14534FEA0432019C43EA0603A4F17E
:100710000C040294009CCDE900B4FFF79FFE03B0E7
:10072000BDE8F08F00200146F9E7C1F30A52C1F39A
:10073000130140F2FF3341F480119A4202DA0020A3
:100740000146704740F233439A42A2F2334202DC40
:100750005242FFF764BE00F02BB8000030B5041E13
:1007600071F1000404DB4FF00044404264EB0101EE
:10077000141E73F1000405DB1C464FF00043524287
:1007800063EB0403994208BF904230BD064C074D0D
:1007900006E0E06840F0010394E807009847103451
:1007A000AC42F6D3FFF7F4FCD82C0308F82C03086E
:1007B000202A04DB203A00FA02F100207047914021
:1007C000C2F1200320FA03F3194390407047202A16
:1007D00006DBCB17203A41FA02F043EAE07306E069
:1007E00041FA02F3D040C2F1200291400843194679
:1007F000704770B58C1810F8015B15F0070301D134
:1008000010F8013B2A1106D110F8012B03E010F873
:10081000016B01F8016B5B1EF9D12B0705D4002396
:10082000521E0DD401F8013BFAE710F8013BCB1A38
:10083000921C03E013F8015B01F8015B521EF9D52D
:10084000A142D8D3002070BD2DE9FF4780460C9C03
:100850001E4615460F46D0074FF0000A48D01B2D04
:1008600046D2084616F013FD002872D0417A012DB9
:1008700003D041F00101A94279D1016807F11400C8
:1008800005F087F95FEA00091ED0D9F8041029B1F4
:10089000D8F8000002F0E4F8C9F804A0B889B04222
:1008A0000FD399F80A00C0070BD1012D13D0D9F846
:1008B0001C5048462DB10246334639464046009406
:1008C000A847484608F032FC04B039464046BDE827
:1008D000F0471FF06BBC404639464A46052EF0D122
:1008E00063882479CDE90034002305F0D0FEE8E7E1
:1008F000B889B0423BD3E8077ED11B2D7CD2680675
:100900007AD4062204200C2D4DD00ADCA5F1020178
:10091000092912D2DFE801F08711151117112211F0
:100920002D00122D65D004DC0E2D5AD0102D04D1CF
:1009300010E0162D67D0182D6DD0009200232A46A6
:100940001DE004230CE0CDE90024012332463946A2
:100950000AE00CE010200023324603E008200623C2
:1009600032463946CDE9000440461AF0FAFFBDE8A8
:10097000FF874546032E07D000230A220090394600
:1009800040460CF0BEFFF2E7B4F8010005228DE806
:1009900005040A230022394640460FF0A1F9002839
:1009A000E5D0002315E04546052B03D000230C229B
:1009B0000090E5E734F8010F072264888DE805040C
:1009C0000C230022394640460FF08AF90028CED089
:1009D0002346024604B039462846BDE8F04705F0F4
:1009E0008BBF04B0234632464046BDE8F0471BF0BB
:1009F0002BBB2346324600E01EE004B04046BDE873
:100A0000F04723F092BB04B0234632464046BDE88F
:100A1000F04718F05BBA04B0234632464046BDE8C2
:100A2000F04707F0FBB904B023463246394640464A
:100A3000BDE8F04707F028B9F01E1E2D39D00BDCB9
:100A40001B2D61D01D2A92D104B023463246404668
:100A5000BDE8F04713F0AAB9522D09D0D22A86D1A9
:100A600004B0234632464046BDE8F04720F092BF2E
:100A7000042E88D3B4F8013085B2002B90D05220D8
:100A80000A21CDE9001056460022CDF808A03946CB
:100A900040460FF082F9002899D0E41CCDE90065AA
:100AA000CDE90246024600233946404605F061FF83
:100AB0005DE74546012EFBD107F110000F210446EA
:100AC0001EF0A4FF0028F3D00168204605F061F86D
:100AD000040012D0616821B1286801F0C1FFC4F898
:100AE00004A0A07AC00705D1002322463946284633
:100AF00005F0E9FE204608F019FB04B03946284607
:100B0000BDE8F0471FF06CBB4546032ED0D3B4F8C8
:100B1000013086B2ADF80030404606226B46E41C38
:100B200007F087FF28B1142141804168CE814168D8
:100B30000C61014604B02846BDE8F04705F0CBBD86
:100B400010B500280ED00446407E410705D520F0A0
:100B50000400607620461FF05BFB2046BDE8104095
:100B600003F074BB10BD0000084910B5097851B1FD
:100B700048B10146054808301EF080FD002803D02A
:100B8000017B002900D0002010BD000010020020D1
:100B900070B50C4605000ED06CB11046FFF7E4FFAF
:100BA0002860002804D0426C1AB1506920600120EE
:100BB00070BD1BF057FE002070BD70B505461E4687
:100BC0000C461046FFF7D0FF286098B1426C72B116
:100BD000314602F11C001EF02BFD206008B10024FC
:100BE0000AE04FF0FF3428681BF03CFE04E06FF091
:100BF0003704F9E76FF00104204670BD70B50D466B
:100C00000446FFF7C5FFE8B12268C2B1286898B171
:100C1000C08B000405D510461BF025FE6FF0670061
:100C200070BD92F828100020C907F9D110461BF0BA
:100C30001AFE6FF0770070BD10461BF014FE6FF0C7
:100C4000370070BD6FF0010070BD10B50446084656
:100C5000FFF78AFF206040B1416C09B1002406E033
:100C60006FF037041BF0FEFD01E06FF00104204639
:100C700010BD2DE9F04114460D4606461A46DDF832
:100C80001880FFF7BBFF07000BD12868414658309A
:100C90001EF0F2FD206020B930681BF0E4FD6FF01B
:100CA00061073846BDE8F0812DE9F04114460D4654
:100CB00006461A46DDF81880FFF7A0FF07000AD1A4
:100CC0002868414658301EF0DFFD206018B93068B2
:100CD0001BF0C9FD7F1E3846BDE8F0812DE9FC41BF
:100CE0000D461C4690460646114600F043F80700A4
:100CF00010D1306818231430CDE90004002201A976
:100D0000072001F0FEFD286020B9404601F0CAFE30
:100D10006FF47C773846BDE8FC8100002DE9F04196
:100D20000C461F46154606461946DDF8188000F0A9
:100D300021F800280DD1206028600CE041461030D9
:100D40001EF05AFE286030B1206860B1286850B1AA
:100D50000020BDE8F0813068216814300FF096FB68
:100D600020600028EAD1384601F09CFE0048F0E7F8
:100D70000CFCFFFF70B506460D46084601F088FDE5
:100D800010B10B4C204670BD01F07CFA6FF47A7400
:100D900050B1294607481EF03FFD306000B10024E5
:100DA00001F09BFD002CEDD0284601F07BFEE9E729
:100DB00014FCFFFF8402002070B505460C46104667
:100DC000FFF7D2FE286050B1806B206008B100248C
:100DD00007E06FF0190428681BF044FD01E06FF094
:100DE0000104204670BD10B50A460446062102F1F2
:100DF00028001EF05FFC002806D104F15400BDE875
:100E0000104005211EF056BC10BD70B505460C46BD
:100E10001046FFF7A9FE286050B1C06C206008B1F1
:100E2000002407E06FF0420428681BF01BFD01E07E
:100E30006FF00104204670BD10B504460846FFF768
:100E400093FE206040B1016C09B1002406E06FF010
:100E500031041BF007FD01E06FF00104204610BDD6
:100E600010B504460846FFF77FFE206040B1816C54
:100E700009B1002406E06FF054041BF0F3FC01E01C
:100E80006FF00104204610BD70B505461E460C46A5
:100E90001046FFF769FE286098B1826C72B1314646
:100EA00002F110001EF0FAFC206008B100240AE0F4
:100EB0004FF0FF3428681BF0D5FC04E06FF05404B9
:100EC000F9E76FF00104204670BD000070B50D46D3
:100ED0000646002401F0DCFC28BB01F0D3F9F8B190
:100EE0001249286860B1012811D8401E51F83020FD
:100EF000B2420CD101EBC000416841B1044606E0AA
:100F0000002201EBC200406828B1521CF9D001F068
:100F1000E4FC2CB107E0501C01EBC2042860F6E7AA
:100F2000304601F0BFFD204670BD00006802002081
:100F300008B50346009114220021052001F0DAF9DA
:100F400008BD000030B502460020B2B1A9B10C4B7B
:100F50001B68412B0FD20B4B094C246843F83420FB
:100F6000074B1C681B685B1C054D2B60054B03EB96
:100F7000C403596002E0012000E0012030BD000000
:100F800038000020E8030020F8B50C464A780646F1
:100F90000025491D1EF0D8FB38B900213346242214
:100FA0000846009401F0A6F905462846F8BD08B5A4
:100FB0000346009140220621032001F09BF908BD61
:100FC0002DE9F04104460E4617464FF00008002C6C
:100FD00031D0002E2FD0002F2DD029E02168E068DD
:100FE000451AA068A84201D2A06800E0284605463C
:100FF000B54201D9304600E028460546BDB104F1AE
:101000001001226850182A46394601F049FF20682D
:1010100028442060A068401BA060761BA8442F4491
:10102000E1682068884203D30020206000E001E0EE
:10103000002ED3D100BF4046BDE8F0810EB52C2272
:10104000CDE900203023029112220321184601F03D
:101050001BF90EBD08B50346009128220221052088
:1010600001F048F908BD70B50D4606004FF00004C8
:1010700034D055B32888B0F5706F2FD205F1100029
:1010800003F0EFFD08BB05F1090003F0EAFDE0B94C
:10109000302001F06BFD040020D030222946FFF7FC
:1010A0008FF80020E0623568BDB104F109063146D1
:1010B00005F1090003F094FD18B9288821888842B9
:1010C00004D1204607F078FF002407E0E86A08B161
:1010D0000546ECE714B1EC6200E03460204670BDD8
:1010E0003EB50C0029D0216839B31821CDE9001094
:1010F0000294A0681C2300224068072120F00040D1
:10110000273001F0C1F8050018D005F11C00A860D7
:10111000A16809782977A068406820F00042A86893
:101120004260A168A8684B68002B01DA896800E07A
:101130000831083001F0B4FE00E0002528463EBD2D
:1011400008B50346009170220021072001F0D2F873
:1011500008BD10B5B0B1A9B10022CA62026872B16F
:101160000B791079834203D148885488A04209D072
:10117000D06A08B10246F4E721B1D16200E0016013
:10118000012010BD002010BD10B5C8B1D9B100229A
:101190008A61026892B10B881088834207D18878EF
:1011A0009478A04203D188899489A0420BD0906999
:1011B00008B10246F0E731B1916102E0016000E060
:1011C00009B1012010BD002010BD08B503460091F3
:1011D00010220421032001F08DF808BD70B5002312
:1011E00028B321B34A680AB1CA6802B38A680AB14F
:1011F0000A69E2B100224A610268144601E013461E
:1012000052696AB115880E88B542F8D32A04B2EB48
:10121000064F0CD013B15869486102E04C6102E0FE
:101220000BB1596100E0016009B1012070BD0020DF
:1012300070BD08B50346009120220021072001F06F
:1012400059F808BD2DE9F84F1546814650F8342F5E
:101250000C466FF47D7701264FF6FF7A6FF47B7BA7
:101260000090CAB34FF00008414623E08889A38A62
:10127000821B9BB29A4219DB7DB12A88B24215D3F8
:101280006A88824212D22888A0816888E081B8F1F9
:10129000000F07D0C8F8204006E0A681A08A761E7D
:1012A0003044F3E7C9F83440216232E0C889884607
:1012B000401C86B200980FF065F90100D6D1BF42FC
:1012C0002AD16069AAEB060283B29A4224DB25B1D7
:1012D0002888B04212D21FE006E0A681761E304474
:1012E00011E0A08168880EE0A08A4FF6FE7280B2FD
:1012F000904211DC35B1288801280DD36A88524507
:10130000EFD909E0A681E08121460098FFF791FF1F
:1013100008B1002700E05F463846BDE8F88F08B501
:101320000346009108220021042000F0E3FF08BDDD
:101330002DE9F04100241F460E461546804604293B
:101340001FD8F5B1114622F0F4FDD0B14046FFF7A9
:101350000BFCB0B10C49204604EB440211F82220EA
:10136000B24205D104EB440001EB8000406802E08A
:10137000641C052CF0D3874202D2C01B441900E044
:101380002C462046BDE8F0816C110308F0B593B0FF
:101390000446002500278E480068002872D0002CE3
:1013A00071D060680028FBD02068012804D1A068B3
:1013B00050B1A068012807D0206802287EDB206990
:1013C00010B12069012879D1A06888B980480068E7
:1013D00009F047FD054625B900BF7EA001F07EFD5E
:1013E000F2E0294686A005F027FC6FF00305EBE04C
:1013F000206802280FDB206901280CD101276069D1
:1014000001F058FE0C2804D30CA9606920F0A6FD59
:1014100001E06FF00505002D7ED11F22002103A8F9
:1014200001F048FD02208DF80C0001208DF80D0020
:1014300000208DF80E0079484078022802D18DF8FE
:101440000E0005E075484078012801D18DF80E00A6
:101450009DF80C00411C03AA5D4800680BF0D5FD07
:101460000546002D74D11F22002103A801F022FDA2
:101470006BA001F01FFE06461D2E05DA09208DF82F
:101480000D0005E09EE091E008208DF80D001D267E
:10149000701CC0B28DF80C00324661A10DF10E0037
:1014A00001F0FEFC9DF80C00411C03AA48480068AE
:1014B0000BF022FE0546002D52D100E06AE0072025
:1014C0008DF8480000208DF849008DF84A0064200E
:1014D000ADF84400C820ADF84600504800788DF8BB
:1014E00038008DF8397000208DF83A008DF83B00F7
:1014F00000210EA8017141718171C17101726FB13A
:1015000065B90BAB3248DDE90C12006811F0D7FD6C
:1015100005469DF82C0000E030E00544CDB90020E0
:1015200042490EAB11AACDE90010012128480068FC
:1015300009F0C0FC054625B900BF3DA001F0CEFC76
:1015400042E0294644A005F077FB6FF003053BE03D
:101550000DE0294647A005F06FFB6FF0030533E06F
:1015600029464BA005F068FB6FF003052CE02946E7
:1015700052A005F061FB6FF0030525E05AA006F0CC
:1015800065F860A006F062F86D4806F05FF86FF04D
:10159000050519E054A006F059F85AA006F056F8CF
:1015A000674806F053F86FF005050DE04EA006F011
:1015B0004DF854A006F04AF8614806F047F86FF07D
:1015C000050501E06FF00705284613B0F0BD0000E7
:1015D000180000202020204741505F4C455F4164A7
:1015E000766572746973696E675F44697361626C72
:1015F0006520737563636573732E0D0A0000000028
:101600004741505F4C455F41647665727469736908
:101610006E675F44697361626C6500000C000020B6
:101620005350504C4544656D6F0000007DB6000876
:101630002020204741505F4C455F416476657274BD
:101640006973696E675F456E61626C65207375636F
:10165000636573732E0D0A004741505F4C455F412F
:1016600064766572746973696E675F456E61626CFA
:10167000650000004843495F4C455F5365745F5205
:10168000616E646F6D5F4164647265737300000026
:101690004741505F4C455F5365745F4164766572A6
:1016A000746973696E675F4461746128647453631D
:1016B000616E526573706F6E736529004741505FAC
:1016C0004C455F5365745F416476657274697369F4
:1016D0006E675F44617461286474416476657274F6
:1016E0006973696E67290000416476657274697375
:1016F000654C45205B30203D2044697361626C6518
:101700005D2000004164766572746973654C452004
:101710005B31203D20456E61626C655D205B302051
:101720003D205075626C696320204164647265736A
:1017300073284F7074696F6E616C295D0000000042
:10174000CC29030870B50446C0690D4608B10020D5
:1017500070BD782001F00AFAE0610028F8D0782204
:10176000002101F0A7FBE0690571012070BD0000B8
:1017700002461E2A06D229B1034B33F832300B80C1
:10178000012000E0002070478400002010B50346CF
:101790000A4692B1002100200CE0094C34F8314097
:1017A0009C4206D1064C04EBC1046468146001201D
:1017B00002E0491C1E29F0D300E0002010BD00000B
:1017C00084000020002800D001207047002800D0AD
:1017D000012070471CB5080016D04368042B13D3B2
:1017E00092B1418969B1091D8B420AD301218DF85B
:1017F000001001906946104601F092F9002802D1CC
:10180000019801F0BDFA1CBD0028FAD11CBD1FB51E
:101810000C00014642D0207804280BD0032810D0B9
:1018200060680B46009001AA02A903A8FFF776FAA8
:1018300058B130E00A4602A903A86368FFF74EFAE0
:10184000F6E703A8FFF796FAF2E7207830B101280F
:101850000BD002280FD0042819D112E0DDE90210C4
:101860000023019A05F048F811E0DDE90210227A20
:1018700006F018FB0BE0DDE90210626806F065FA7D
:1018800005E0DDE902100023012206F07EFE039848
:10189000006801F007F9204601F072FA1FBD000050
:1018A0002DE9FE4F4FF000050C00AA46029274D0BD
:1018B0006068022871D3DFF830C4227A04F10B0685
:1018C000711EDCF8143004F10D0904F1100B4FF017
:1018D00002081C2A79D010DC5ED2DFE802F05D3EFF
:1018E0003E415F7781888F979EA7AAADEF5DB2B723
:1018F000BBC3F0EDECEBEAE9E8E7322A6FD012DC8B
:10190000F94FA2F11D02152A7F68E5D2DFE802F047
:10191000F694F5F4F3F2F14444444444444444F06E
:10192000F0EFF2EEED003B2A6FD009DCA2F13302BA
:10193000072AD1D2DFE802F0E8E7E6E530E4E30089
:101940003E2A71D004DC3C2A6FD03D2A24D173E2B8
:10195000FE2A01D0FF2AF9D1CBE1DCF8001048E0E3
:101960000D2819D30C21022001F0D3FE050013D05D
:101970006968A07A08706968B4F80B0048806868E4
:10198000D4F80D104160B4F8111001816968E07C51
:1019900088726968207DC872AEE2ACE20C28FBD385
:1019A0000A21032001F0B5FE0500F5D06868D4F8DF
:1019B0000A100160E18981806868218AC180A17C68
:1019C00001726968E07C487296E21FE10628E3D361
:1019D000A17A4B4632460420D6E105468CE2DCE192
:1019E0000528D9D30023A17A32460520CCE1DCF8C2
:1019F0000C100029D0D020468847EEE70628CBD32C
:101A0000A17A4B4632460720BEE108E20528C3D33F
:101A10000023A17A32460820B6E10628BCD3A17A79
:101A20004B4632460920AFE10EE2FFE1DCF8081038
:101A3000DFE7DCF81010DCE7002BADD0204698473C
:101A4000CBE70328A8D3A17A0D20CDE00428A3D3A7
:101A50000E20E1E10A289FD3A17A04F11103324656
:101A60000F20C9E1032897D3A07A464608EB8001EE
:101A7000102001F04EFE05008ED06968A07A087033
:101A8000002004230DE004EB800106EB800C31F80C
:101A90000B7F22F80C706A6803EB80074988D153EA
:101AA000401C6A6811788142EDD824E29FE097E0FB
:101AB00083E069E062E05BE027E000E02FE10828D6
:101AC0008CD30821112001F024FE050086D069681E
:101AD000A07A08706968B4F80B0048806968607B78
:101AE00008716968E089C88006E250E146E127E1B3
:101AF000FCE0DAE0D4E09EE097E090E089E088E165
:101B00007DE173E16CE165E15FE10328ECD3A07A4C
:101B1000012700EB400101EBC00007EB4001122060
:101B200001F0F7FD0500DFD06968A07A0026087093
:101B30004FF0070817E006EB460000EBC60007EB86
:101B400040020A4404EB400108EB4000D1F80B309E
:101B50001360B1F80F3093806B6810221844113174
:101B6000FEF72EFB761C69680878B042E3D8C2E124
:101B70000828B9D300231A46132062E10828B3D3FA
:101B800000231A4614205CE11828ADD31721152034
:101B900001F0BFFD0500A7D06868D4F80A10102234
:101BA0000160E189818068685946801DFEF708FB65
:101BB000696894F8200088759EE1657A0F461620C2
:101BC000A91C01F0A6FD060008D0706805802DB1A3
:101BD00070682A463946801C01F062F935468BE16F
:101BE0000328E9D3A17A172001F03AFDF5E605288C
:101BF000E2D30421182001F08CFD0500DCD06968D7
:101C0000608908806968207B887075E1DCF81810AD
:101C1000EFE60728D0D34B4632461A20F6E00928D3
:101C2000CAD301225B461C200BE10928C4D3012240
:101C30005B461D2005E11828BED31821212001F0A4
:101C400068FD0500B8D06968A07A08706968B4F8C2
:101C50000B0048806968607B08716968A07B4871E7
:101C60006968E07B8871207CD4F8111040EA01207B
:101C700069688860207DD4F8151040EA0120696801
:101C8000C860207ED4F8191040EA01206968086114
:101C9000207FD4F81D1040EA0120696848612BE1DB
:101CA000002F89D02046B84797E600250F281AD381
:101CB0000E21232001F02DFD050014D06968A07AC3
:101CC00008706968B4F80B0048806968607B087127
:101CD0006968A07B48712046696850F80F2F41F869
:101CE000062F4068486007E1306E0020DCF81C10C9
:101CF0007FE6FF2A0ED01E20667A0F46314601F09D
:101D000008FD050005D03EB132463946686801F04D
:101D1000C7F8F1E01F20EFE7C5F804A0ECE00628C3
:101D20000DD3B4F80B00A0F54061033907D1607BF7
:101D3000002804D1202001F0ECFC0500ECD1DBE010
:101D40000D2841D30C21262001F0E3FC05003BD0F7
:101D50006968A07A08706968B4F80B0048806968FF
:101D6000B4F80D0088806968B4F80F00C88069680D
:101D7000B4F811000881B4F81300B3E0052823D3A8
:101D8000A17A00233246282001F08EFC25E608289F
:101D90001AD300231A46292053E00B2814D3092113
:101DA0002A2001F0B6FC05000ED06868D4F80A10AD
:101DB0000160E18981806968207C88716968607C44
:101DC000C8716968A07C087296E00C286ED35A46E8
:101DD0002B2028E0082869D300231A462C2030E065
:101DE000082863D300231A462D202AE009285DD352
:101DF000A17A002332462E2001F03CFCEDE50628B6
:101E00007AD30A4604F10C0300212F2001F063FC71
:101E1000E3E5042870D3302001F08AFCDDE50C28CE
:101E20006AD35A46312001F0E2FBD6E5092863D394
:101E300001225B46322004E010285DD35B46082275
:101E4000332001F0EEFBC8E5032855D3A17A06291B
:101E500051D2DFE801F050032C2F4D4A15284BD307
:101E60002C21422001F055FC050045D0696881F81D
:101E700000A06968E07A88706968A08988806968CC
:101E8000A07B88716968E07BC8716868216981609E
:101E9000A18A81816968E08AC8816968208B08828B
:101EA0006968608B48826968207F087524E0DCF8E7
:101EB00024109EE50C281FD32C21422001F029FC80
:101EC000050019D0696881F800806968E07A887037
:101ED0006968A08988806968E089C8806968208A03
:101EE0000881608A6968488106E0DCF8201080E596
:101EF000DCF828107DE52CB12078000602D42046BD
:101F000000F03EFF002D0BD08DF800A06946019532
:101F1000029800F005FE002802D1019800F030FF81
:101F2000BDE8FE8F1FB50C00034612D0208800903C
:101F300001AA02A903A8FEF7B7FE38B9DDE901102E
:101F4000E27804F04BFC03981AF08CFC204600F079
:101F500017FF1FBD1CB5080016D04368032B13D311
:101F600092B1817A69B1C91C8B420AD302218DF8E2
:101F7000001001906946104600F0D2FD002802D101
:101F8000019800F0FDFE1CBD0028FAD11CBD000028
:101F90002DE9F04FCC6980468DB0207915468946F1
:101FA00060B198F81C00012802D16079C00705D003
:101FB0006FF076050DB02846BDE8F08F04F16200A1
:101FC00010220021064600F075FF28784FF0000A25
:101FD000012806D0032812D0042808D04FF0FF357E
:101FE000E8E71022291D3046FEF7EAF816E084F8EB
:101FF00062A084F863A0504684F864A00CE02879BD
:1020000084F86200A888000A84F863006868000CFD
:1020100084F864006868000E84F8650004F13206F4
:10202000002508F1440B5946D8F8000022F0C2FC04
:10203000070005D108225946304600F031FF083626
:102040006D1C022D01D2002FEDD03D00B2D16A46A9
:102050004946404606F0CEFC08AA694640461BF0B9
:10206000FFF80500A6D1207950B16079102240F028
:102070000100607108A904F12200FEF7A1F899E7B8
:10208000216829B1D8F8000000F0E2FFC4F800A0F0
:1020900008AA4946404601F051F805008AD1B9F82E
:1020A000001047F23053034AD8F8000000F094FFC4
:1020B00020607FE7AD2602082DE9F0411346064671
:1020C000002218780D461446092849D2DFE800F0AE
:1020D000050E380B1236454545002988306822F038
:1020E0001FFC07463EE00122042406E02AB9022232
:1020F000052402E00AB908220624002329463046B6
:1021000001F031F807002DD1042000F02FFD070069
:102110006FF0410810D028883880FC700020B8701B
:102120003A461249306800F0D9FB002801DD00274B
:1021300018E0384600F024FE474613E0082201E08C
:1021400002B9052201232946304601F00CF80700A8
:1021500008D1284606F098FF04E06FF0760701E00A
:102160004FF0FF373846BDE8F0810000251F00081A
:1021700070B504461B48006800282FD01A48007824
:10218000002823D164B12068002809DDA06818B1B7
:102190000120164908700BE000201449087007E080
:1021A0001248007808B9012000E000200F490870AB
:1021B00000BF0E48007808B10DA000E00EA0014657
:1021C00010A000F08BFE00BF002509E000BF1848FA
:1021D00000F084FE00BF6FF0050501E06FF005051B
:1021E000284670BD18000020330000203500002074
:1021F0004143544956450000494E414354495645D0
:102200000000000043757272656E74204175746F32
:102210006D617469632052656164204D6F6465204F
:1022200073657420746F3A2025732E0D0A00000028
:102230008020030817B585B014469DF814009DF85A
:1022400015109DF816209DF81730CDE90032CDE924
:1022500002109DF818309DF8192003A1204600F0C7
:10226000A9FE08B010BD0000307825303258253066
:1022700032582530325825303258253032582530E2
:1022800032580000012070472DE9F0478A4608A91E
:102290001D4691E8C00290460024F8B1F5B1A8426D
:1022A00025D3DFB15FEA090121D000F05FFC040013
:1022B0001DD02A46494600F0F3FD0020A0513D689C
:1022C000A5B104EB08073A4605EB0801504602F0B9
:1022D000A3FC20B1204600F053FD002407E0A859DC
:1022E00008B10546EFE714B1AC5100E03C60204670
:1022F000BDE8F0872DE9F0471746089D89468246DC
:1023000073B16DB101260020E8511C688CB105EB5A
:102310000908424604EB0901504602F07DFC08B171
:10232000002607E0E05908B10446F2E716B1E5518E
:1023300000E01D603046BDE8F0872DE9FF411E46F4
:102340005FEA000832D0FEF70FFC05002BD0A86929
:102350000027F8B1182000F009FC040017D02770FE
:102360000C20606004F10C00A0600199E160BDF8F0
:1023700008102182032066613070D5E906322146BB
:10238000404698470025204600F0FAFC10E06FF028
:1023900027050DE0287D042802D36FF03C0507E0F7
:1023A0003770002504E06FF0010501E04FF0FF35C4
:1023B00004B02846BDE8F0812DE9F0470024DDF89F
:1023C000208081461D4692460F4626465FEA080059
:1023D00020D0FFB1B9F1000F1CD0D8F8004001E0C7
:1023E00026466459B4B1B9F1060F0BD004EB0A01CB
:1023F0003A46484602F010FC0028F1D02EB1605950
:10240000705105E0BC42EBD1F8E76159C8F8001003
:10241000002060512046BDE8F0872DE9F0410E0014
:1024200007462ED0FEF7A0FB050027D0A86A304251
:102430001ED0C00705D00021384609F0E8F8040096
:1024400009D13146384611F03DF908B1002401E0C8
:102450006FF0390444B195F82800C00713D001216A
:10246000384609F0D4F80EE0A86AB043A8620AE042
:1024700010B16FF0660406E0002404E06FF0010480
:1024800001E04FF0FF342046BDE8F08170B50D004B
:10249000064624D0FEF768FB04001DD0A16A21B1D6
:1024A0003046FFF7BAFF002815D1E80705D0012113
:1024B000304609F0ACF800280DD12946304611F01D
:1024C00047F908B1002001E06FF06600002802D152
:1024D000A16A2943A16270BD6FF0010070BD4FF089
:1024E000FF3070BD3EB50C00054622D0024602A961
:1024F00001A8A368FEF761FB00281AD12078A8B9CB
:102500000198406C806C68B1029901208870019834
:10251000416CC86C00908B6CA168284606C907F016
:10252000C7FB38B10320A1688968087001981AF0C8
:1025300099F93EBD0120F6E770B50E46050009D0B9
:102540002C6803E02046A45900F005F8002CF9D1CE
:102550000020286070BD002801D000F011BC704739
:1025600010B504460020002B09D0062C07D11868AE
:10257000002904D0002802D088428058FAD110BD2A
:102580002DE9F04FDFF80483814687B098F800000A
:102590000F466FF0020528B911F0AEFC98F8000064
:1025A000002848D0B9F1000F7ED000F04FFC48461B
:1025B00011F014FA6FF06406002876D040F27C40E7
:1025C00000F0D4FA040071D05C22002100F072FC0B
:1025D0004FF48460E06204F15C002063484610F030
:1025E00085FD606000287DDD834611F017F9002825
:1025F00079D0D8F804004146401CC8F8040001D541
:1026000001204860A14B2060083358220021072098
:102610000094FFF76FFE002866D0206810F024FCBD
:1026200050B16FF0030599482168083003F02DF987
:102630000446002D72DB24E104A9206822F03AFC54
:1026400000286CD111F078FC0DF021FC814620307F
:1026500000F08CFA06004FF0000A36D00DF01AFC9C
:10266000014606F120004A46009000F019FC9DF852
:10267000100070779DF8110030779DF81200F07609
:102680009DF81300B0769DF8140070769DF8150043
:10269000307606A80DF0F9FB009ACDF800A003965D
:1026A000CDE90129062202E0E1E0DEE0DAE00121E5
:1026B00006F118030DF0D8FB002803DB307BC006C1
:1026C00000D50025304600F05BFB012001F0FEFE46
:1026D000002D7DD100262568F8070ED0002D5ADD8B
:1026E000B80702E0BBE0AAE0A6E02AD420681AF00E
:1026F000DFFA20B36FF005054DE0284612F056FBD7
:1027000010B16FF0060546E00126780709D420686D
:102710001AF052FD20B16FF008053CE090E066E051
:102720000326002D37DD3807DAD4206818F042FF81
:1027300010B16FF007052EE046F00406D0E746F032
:102740000806F80408D4206808F044FA10B16FF0C5
:10275000040520E046F01006F8075FD1B8045DD408
:10276000700705D5B00703D520681CF035FB10B104
:102770006FF009050FE046F0200678044ED470078C
:1027800007D5B00705D5B00603D520680DF015FABA
:10279000C0B36FF00A05300602D5206814F074FD4E
:1027A000700602D520680DF0F3F9B00602D5206856
:1027B0001BF0CFFBF00602D5206807F0D9FB7007AD
:1027C00002D5206818F044FCB00704D5206800E06A
:1027D0000BE01AF0F4FB300702D520681AF022FA59
:1027E000F00702D0206811F077FC002D49DAD4E917
:1027F000001011F0C7F820680FF0D4F8002DFFF694
:1028000012AF3EE0FFE746F04006380406D42068E9
:1028100014F03BFD10B16FF00B05BCE7C4F828A025
:10282000207D06282DD3206810F0DEFC48B3A06A76
:1028300040F00100A06224E06FF0410500E0354661
:1028400058460FF0F5F8002D1BDA14B1204600F0C1
:1028500097FA002D15DAD8F8080058B111E06FF09A
:102860000D05F3E76FF02705F5E73546F3E74FF081
:10287000FF35F0E705480C3006F03AFA002000F08A
:10288000BDF907B02846BDE8F08F00001002002017
:102890000020704710B50C0009D0FEF765F918B19B
:1028A000806A2060002010BD6FF0010010BD4FF065
:1028B000FF3010BD70B515460E460024FEF754F9E2
:1028C00038B1816911B16FF0140404E0C0E9066504
:1028D00001E06FF00104204670BD704770B51646E8
:1028E0000D4604000BD0FEF73FF9002808D035B1A3
:1028F000324629462046BDE8704010F05CBD0020FD
:1029000070BD2DE9F041804606981D4616460F46DB
:10291000002470B16FB1B8F1000F0AD0046800E074
:10292000645934B1A1193A46404602F075F90028BD
:10293000F6D02046BDE8F08170B5254D06462878D2
:1029400000280CD0002E0AD0314605F108001CF0FA
:1029500095FE040003D0607B10B10120207370BD90
:10296000304614F091FC30460DF012F930461BF061
:10297000F0FA304607F0FCFA304618F069FB3046B2
:102980001AF01DFB30461AF04DF9304611F0A4FB49
:102990003146606810F0F6FF30460FF003F86068CB
:1029A0000FF046F810F038FF09483146083002F0C1
:1029B0006CFF08B1FFF7CFFDA8680028CFD104480D
:1029C0000C3006F095F9BDE87040002000F016B913
:1029D000100200202DE9F843984615000E460746E0
:1029E00034D076B3FEF7C0F860B3142000F0BEF820
:1029F000040023D080C40020A4E82101394644F813
:102A000010093346144A084600F0E6FA6FF0410513
:102A1000606078B1114B1022042107200094FFF769
:102A200069FC18B16568002D04DB11E03846616867
:102A300000F00EFB204600F0A3F909E06FF0270537
:102A400006E003E0FFE76FF0010501E04FF0FF351E
:102A50002846BDE8F8830000752602081C02002005
:102A60002DE9F0410E0007464FF0FF3414D0FEF779
:102A70007BF878B131460A4802F0FDFE05000BD024
:102A80003146384600F0E4FA00B100242846FFF74A
:102A900062FD01E06FF001042046BDE8F081000016
:102AA0001C020020704710B5FEF75EF8002802D027
:102AB00000218161C16110BD70B50346154C2478B9
:102AC00034B3154C2468082C22D0FBB10024134DDC
:102AD000114E366805EB06152C60104C0E4D2D6816
:102AE00004EB0514A3600D4C0B4D2D6804EB05148D
:102AF000E1600A4C084D2D6804EB05146260064C39
:102B00002468641C044D2C60012002E0002000E0D9
:102B1000002070BDDC010020E0010020586500208D
:102B20002DE9F04104460E46E4B1DEB1D4E90201DC
:102B3000884215D2D4E90471236803FB07103A4692
:102B4000314600F0ADF92068401C2060E168884201
:102B500001D100202060A068401CA060012502E097
:102B6000002500E000252846BDE8F08170B5044648
:102B70002146084814F028FA05464DB900BF042044
:102B800000F09EFA18B1214603A000F0A7F900BF9B
:102B9000284670BD581500204D616C6C6F6320464F
:102BA00061696C65643A2025642E0D0A00000000FE
:102BB000F0B5104C002318462478002C18D00029BA
:102BC00016D0002A14D00C4E0027C3EBC30506EB29
:102BD0008504D4F804C08C4505D116F8255015B1EC
:102BE000C4E9037201205B1C002801D1102BECD337
:102BF000F0BD000094020020646F002010B5002199
:102C0000044800F041F804480021C16041600170AF
:102C100010BD0000B52C0208940200202DE9F041FF
:102C200006460F46AEB1A7B106FB07F101F1180049
:102C3000FFF79CFF05000AD0EE602F61002028609E
:102C40006860A86005F1180068612C4602E0002465
:102C500000E000242046BDE8F08100000020024989
:102C60000860024908707047F0010020DC01002074
:102C700000B5014600F08EF8024600BF00F08AF869
:102C8000801A8842FAD300BD30B50246264B1B7825
:102C9000002B47D0002A45D000200DE0234B03EB4A
:102CA00000139B68934206D1204B03EB0013DB68B3
:102CB0008B4200D104E0401C1D4B1B689842EDD3B1
:102CC00000BF1B4B1B6898422CD2401C21E0174BC5
:102CD00003EB00131C68431E144D05EB03131C602B
:102CE0002B4603EB00139C68431E05EB03139C600B
:102CF0002B4603EB0013DC68431E05EB0313DC607B
:102D00002B4603EB00135C68431E05EB03135C606A
:102D1000401C074B1B689842D9D3054B1B685B1EB0
:102D2000034C236030BD0000DC010020586500200A
:102D3000E001002070B504460D46C4B1A5B110E015
:102D4000D4E90431626802FB0310A8476068401CA4
:102D50006060E168884201D100206060A068401E88
:102D6000A060A0680028EBD1204600F009F870BDF3
:102D700010B5002401E000F0D7F8002CFBD010BD06
:102D800010B504462146024814F09FF910BD00001A
:102D9000581500200148006870470000E801002035
:102DA0007FB504462CB1206830B120492068086006
:102DB00002E000201D4908604FF4A0411C4810F0BB
:102DC000B2FF684617F0ECFE4FF47A720098B0FB41
:102DD000F2F1481EB0F1807F00D31BE0481E4FF097
:102DE000E022506150170F22002807DA13071E0E49
:102DF000104B00F00F052D1F5E5503E013071D0E4D
:102E00000D4B1D5400BF00204FF0E02290610720C1
:102E1000106100BF012009490860002008490860CE
:102E2000084908600120084908707FBDF0010020B2
:102E30005815002018ED00E000E400E0E401002057
:102E4000E0010020EC010020DC01002070B50C4DF9
:102E50000024287890B90020014668604FF4E072A1
:102E6000084800F027F8322200210748FFF724FE27
:102E700010B10120287001E06FF00304204670BDFE
:102E800094020020646F0020B52C020870B504463F
:102E90000D461646324629462046FDF7CAF970BD52
:102EA00070B504460D461646324629462046FDF7C3
:102EB00087F970BD70B506460C4615462246294670
:102EC0003046FDF79DF970BD70B504460D461646B7
:102ED000324629462046FDF773F970BD0FB410B590
:102EE000C2B00B48006878B145A84190FF2101A805
:102EF000419B449A23F0AAFC04460020419001A97A
:102F00002046034A1268904742B010BC5DF814FB9B
:102F1000F001002003480078002802D000201FF0B4
:102F200035BD70479402002070B5FFF733FF0646A9
:102F300017480068351A4DB3002421E0154800EB0E
:102F4000041000682844134901EB0411086011487B
:102F500000EB041000680F4901EB04114968884236
:102F60000DD30C4A02EB0412D0680A4A02EB041299
:102F7000916888470020074901EB04110860641C30
:102F8000054800688442D9D30148066070BD00003E
:102F9000EC01002058650020E001002070B50446D7
:102FA0000D462A46214602480DF070F870BD00001B
:102FB000581500200FB438B5044606A800902046E6
:102FC000009A059923F054FC0546002000902846FD
:102FD00038BC5DF814FB00002DE9FF5FDFF868A046
:102FE0008B4600259AF800109846914628460029FD
:102FF00027D0B9F1000F24D0B8F1000F21D0134F22
:10300000C5EBC50607EB86046168A9B917F8261059
:1030100091B90DF0BDFA60600099A160012107F837
:103020002610C4F818900C34002184E80209DAF85C
:103030000420521CCAF804206D1C002801D1102D58
:10304000DED304B0BDE8F09F94020020646F00203E
:10305000F0B5124E002210463378002B1DD0002907
:103060001BD00F4D0027C2EBC20305EB8304D4F83D
:1030700004C08C450CD115F823C0BCF1000F07D05B
:10308000676005F82370A7607068401E70600120BB
:10309000521C002801D1102AE5D3F0BD9402002073
:1030A000646F002070B504460D4629462046FDF7A2
:1030B000CDF870BD10B504462046FDF7B3F810BD3D
:1030C000014602480068084070470000E401002003
:1030D0002DE9F04104460E46D4B1CEB1A068A8B1A6
:1030E0000125D4E90470636803FB07013A463046C2
:1030F000FFF7D6FE6068401C6060E168884201D13D
:1031000000206060A068401EA06002E0002500E092
:1031100000252846BDE8F08170B580F828200D46CE
:103120000446102219462930FDF74AF82946204660
:10313000BDE87040002311221CF071BC70B504463C
:10314000134603200D4684F828001022194604F186
:103150002900FDF735F829462046BDE870400123D7
:1031600011221CF05CBC70B50446052084F82800D0
:103170000D4684F829204BB1E86920B1016811B1EE
:103180002068FFF765FF284605F07EFF29462046A8
:10319000BDE87040012302221CF041BC2DE9F04142
:1031A000044680F8282018781D468846052816D23F
:1031B000DFE800F0030507090B00002006E001200E
:1031C00004E0022002E0032000E0042084F829004B
:1031D0006A780121002032B184F82A1005E04FF00E
:1031E000FF30BDE8F08184F82A0084F82B00A8782D
:1031F000012801D184F82B10E878002894F82B00DE
:1032000002D040F0040001E020F0040084F82B001C
:10321000287984F82C00207F05F1080601280AD0BF
:10322000022802D06FF06A00DBE7304600F08BFA2C
:103230000746681D04E0681D00F085FA0746304621
:1032400000F081FA84F82D7084F82E004146204663
:10325000BDE8F041012307221CF0E1BB70B5044634
:1032600004200D4684F82800C969102204F12900C1
:103270003231FCF7A5FF29462046BDE87040012306
:1032800011221CF0CCBB30B40B2480F82840002461
:1032900080F82940012A01D180F8292090F82920BE
:1032A00013B142F0040201E022F0040280F8292068
:1032B000012330BC02221CF0B2BB00002DE9F0411A
:1032C0001F46069E13468C4605466FF00D040EB150
:1032D0000A2200E009221946604600F071F92860D0
:1032E000C0B1406B81693868C1F80B00B888A1F89B
:1032F0000F000EB1307848742868094A406B0346C5
:103300000DF0E1FE002801DB002405E0286819F03B
:10331000A9FA01E04FF0FF342046BDE8F08100003B
:10332000592102082DE9F0479946DDE9088607464C
:10333000DDF828A013460C466FF00D055FEA080083
:1033400000D0012030440930C2B21946204600F0B6
:1033500037F9386058B3406BD9F80010B8F1000F56
:103360008469C4F80B10B9F80400A4F80F0008D061
:1033700098F8000060745EB13246514604F11200C4
:1033800004E02EB13246514604F11100FFF788FDEA
:103390003868094A2146406B03460DF094FE002828
:1033A00001DB002505E0386819F05CFA01E04FF018
:1033B000FF352846BDE8F087592102082DE9F04184
:1033C0001E4613460F4605466FF00D0404221946AB
:1033D000384600F0F5F8286080B1406B0A4A8169F0
:1033E000CE722868406B03460DF06DFE002801DBAD
:1033F000002405E0286819F035FA01E04FF0FF34A9
:103400002046BDE8F0810000592102082DE9F0476F
:103410001F00DDE9086913460C4680466FF00D0574
:1034200001D0012000E000203044C01CC2B2194687
:10343000204600F0C5F8C8F8000010B3406B84695E
:103440003FB13878E0725EB13246494604F10C0073
:1034500004E02EB13246494604F10B00FFF720FD8F
:10346000D8F80000094A2146406B03460DF02BFEB8
:10347000002801DB002506E0D8F8000019F0F2F979
:1034800001E04FF0FF352846BDE8F08759210208DA
:103490001CB5002300930193FFF7B8FF1CBD00008B
:1034A0002DE9F0411F46DDE9068413468C460646A9
:1034B0006FF00D050CB1092200E0072219466046A5
:1034C00000F07EF83060E8B1406B8169380ACF7255
:1034D000087381F80D804FEA1820887324B1207892
:1034E000C8732088000A08743068094A406B034694
:1034F0000DF0E9FD002801DB002505E0306819F03A
:10350000B1F901E04FF0FF352846BDE8F081000039
:10351000592102082DE9F0411E4613460F46054683
:103520006FF00D0405221946384600F049F828606E
:1035300090B1406B0B4A8169300ACE7208732868DB
:10354000406B03460DF0BFFD002801DB002405E0C1
:10355000286819F087F901E04FF0FF342046BDE8F4
:10356000F0810000592102082DE9F0411E46134662
:103570008C4605466FF00D04062219466046069FEC
:1035800000F01EF8286098B1406B0C4A8169300A3F
:103590004F73CE7208732868406B03460DF093FD9D
:1035A000002801DB002405E0286819F05BF901E040
:1035B0004FF0FF342046BDE8F08100005921020899
:1035C00070B514460D46FDF7CFFA00280AD0416BBE
:1035D00049B18B69012119705C60290A1D72597209
:1035E000E41E9C7270BD19F03DF9002070BD70B5ED
:1035F00014000D4601D00C2100E0082100F089F8EC
:1036000000280DD041682A68002C0A60AA888A80A8
:1036100006D02178D4F8012041EA02214268916065
:1036200070BD2DE9F0410F461E461546911D00F074
:1036300070F804000DD0606839680160B988818035
:103640003DB1012D08D060682A463146801DFFF744
:1036500027FC2046BDE8F081616830788871F8E782
:1036600010B50C46012100F054F8002801D0416843
:103670000C7010BD70B51C0015460E4601D0082117
:1036800000E0072100F045F800280CD04168002C2C
:103690000E7041682A6841F8012FAA888A8002D0FA
:1036A00042682178D17170BD70B51C0015460E4678
:1036B00001D0062100E0042100F02BF8002809D0F9
:1036C0004168002C0E7042682988518002D04268FF
:1036D0002178117170BD70B51D4616460C0001D0E1
:1036E000062100E0042100F014F8002809D04CB1B4
:1036F0004268217811704268318851804268298877
:10370000918070BD4268318811804268298851805B
:1037100070BD70B505460C4601F10800FFF726FAAA
:10372000002804D00570448000F10801416070BD9C
:1037300010B50C460221FFF7ECFF002802D04268CA
:103740002188118010BD08B500218DF80010017886
:1037500011B101218DF80010417829B19DF80010B8
:1037600041F002018DF80010807828B19DF800002A
:1037700040F004008DF800009DF8000008BD30B452
:1037800014460D46DDE9022105704470240A847058
:1037900053B11C78C4701B881B0A0371002A0BD01C
:1037A000002909D0401D04E0002A05D0002903D0DB
:1037B000C01C30BCFFF774BB30BC70472DE9F04132
:1037C0000D0004464FF0FF377ED084B3002614224C
:1037D0003146FFF76FFBA879C00713D0206840F08F
:1037E00001002060287809286ED2DFE800F0050883
:1037F0001D2124272A2D30004FF4166001E04FF4DC
:1038000096506060A879800728D5206840F00200B3
:103810002060687810F003001CD0012830D0022806
:103820001AD0032850D12DE04FF4E150E9E74BE0E6
:103830004FF41650E5E74FF49640E2E74FF4164098
:10384000DFE74FF46140DCE74FF4E130D9E74FF4B4
:103850006130D6E7052000E00620A060A8794FF08F
:10386000000240074FF0010111D5206840F004002C
:103870002060687810F0040006D0042824D105E008
:103880000720EAE70820E8E7227300E02173A8791F
:10389000000725D5206840F008002060687800F017
:1038A0003800182817D003DC38B108280CD106E0FE
:1038B00028280BD0382807D17BE0627310E0A87964
:1038C000C00601D561730BE03E466FE0A879C006E3
:1038D000FAD5022003E0A879C006F5D5032060736D
:1038E000A879800605D5206840F010002060E878AF
:1038F000A073A879400605D5206840F0200020601C
:103900002879E073E888C0050AD5206840F04000B7
:103910002060A878C00703D0206940F00100206132
:10392000E88880050AD5206840F040002060A8782B
:10393000800703D5206940F002002061E888400537
:103940000AD5206840F040002060A878400703D5E1
:10395000206940F004002061E88800050AD520684D
:1039600040F040002060A878000703D5206940F0AF
:1039700008002061E888C0040AD5206840F04000B3
:103980002060A878C00603D5206940F010002061AF
:10399000E88880040AD5206840F040002060A878BC
:1039A000800603D5206940F0200020613046BDE844
:1039B000F081A879C00687D5042090E72DE9F04171
:1039C000054647688C460D300699384401262AB1D1
:1039D00013B109B11C1D06E0042404E013B109B1C0
:1039E0009C1C00E00224D5F808E0274477451CD849
:1039F00080F800C04FEA1C2747704AB117788770DB
:103A00001288120AC2704BB141B11A46001D03E080
:103A100023B119B11A46801CFFF742FA68682044A6
:103A20006860A9682044884200D900263046BDE875
:103A3000F0812DE9F0410D4604004FF0FF3779D0B9
:103A4000002DFCD0002608223146FFF733FA2878F3
:103A50003146C0074FF001024FF002034FF0030C54
:103A60002FD0E08840F00100E0806868B0F5964F04
:103A700023D00CDCB0F5166F16D0B0F5965F15D0DC
:103A8000B0F5E15F14D0B0F5165F53D112E0B0F598
:103A9000164F14D0B0F5614F24D0B0F5E13F23D0DC
:103AA000B0F5613F46D121E021700AE0227008E0C4
:103AB000237006E084F800C003E0042000E0052045
:103AC0002070287880071BD5E08840F00200E08055
:103AD000A86805280CD006280CD007280CD0082888
:103AE00028D10BE00620EBE70720E9E70820E7E70D
:103AF000617005E0637003E0627001E084F801C06A
:103B0000287840070BD5E08840F00400E080287B4F
:103B100028B1012876D1607840F0040060702878E0
:103B200000071BD5E08840F00800E080697B05298C
:103B300068D200E066E0DFE801F011030A575E009A
:103B400040F01000E080607840F0080005E040F0B0
:103B50001000E080607840F0280060702878C0068F
:103B600005D5E08840F02000E080A87BE070287850
:103B7000800605D5E08840F04000E080E87B2071B9
:103B8000287840062DD5E08840F47C50E080287CE1
:103B9000C00703D0A07840F00100A070287C800707
:103BA00003D5A07840F00200A070287C400703D520
:103BB000A07840F00400A070287C000703D5A0780E
:103BC00040F00800A070287CC00603D5A07840F023
:103BD0001000A070287C800603D5A07840F020005B
:103BE000A0703046BDE8F08140F01000E0806078C1
:103BF00040F01800B1E740F01000E080607840F03D
:103C00003800AAE73E46ECE7F0B50646DDE9055C7C
:103C1000DDE907740A44002009322E80964200D95B
:103C20002A802A88093189B2511ACCF800101978F3
:103C300091B108290ED15978D3F8022041EA022126
:103C400021605979D3F8062041EA022139602268BF
:103C5000914200D90520F0BD002121603960F0BDFE
:103C6000F0B5002205460A4E10460A6002EB4203F8
:103C700006EB83046768A46838440F683C440C6012
:103C800016F82330AB4202D0521C052AEED3F0BD09
:103C90006C110308F0B54FF6FF7641F221070EE0F4
:103CA00012F8014B002304F0010595EAD03506EA2D
:103CB000400000D0784064085B1C082BF3D3491EF9
:103CC000EED2F0BD0B280BD941000322B1FBF2F07C
:103CD000B1FBF2F302FB1311012900D9401C70471C
:103CE00000EB80010A22B1FBF2F0B1FBF2F302FB20
:103CF00013110529F2D2704710B5020046D081B3E6
:103D00000B7803F0070003F0F803DB10092B3DD21A
:103D1000DFE803F0050707131B0D1B1B1B00012029
:103D200032E020B1012804D002282FD103E0022084
:103D30002AE0032028E0052026E00128F9D0022807
:103D4000F9D0042822D111201EE0052804D006282D
:103D500008D007281AD10CE0022A17D34878801C13
:103D600011E013E0032A11D3B1F8010040BAC01CDE
:103D700009E0052A0AD3D1F80100097900BA20F038
:103D8000FF000843401D08B1904200D9002010BD3B
:103D900010B5FF22054C03E010F8013B5340E25CF4
:103DA000491EF9D2C2F1FF0010BD000098120308AD
:103DB0007CB5044620480068002839D0002C2FD05C
:103DC000206800282CDD6068002829D06068FFF793
:103DD00071F90C2824D3694660681EF0BFF8DDE94C
:103DE000000104F0A7FA061E11DBC6EBC60000EBCB
:103DF0004000124901EB00130F4806CB006800F0A9
:103E000047F808B9002515E06FF0030512E000BF80
:103E10000BA06168FFF762F800BF6FF0030509E0CF
:103E200000BF12A0FFF75AF800BF6FF0050501E0D0
:103E30006FF0070528467CBD180000205C060020B6
:103E40004E6F742063757272656E746C7920636F47
:103E50006E6E656374696E6720746F2042445F41C3
:103E60004444522025732E0D0A00000055736167EB
:103E7000653A2043616E63656C436F6E6E65637473
:103E80004C45205B42445F414444525D2E0D0A0084
:103E9000F7B50646002E3FD09DF8040078B99DF88E
:103EA000050060B99DF8060048B99DF8070030B9D3
:103EB0009DF8080018B99DF8090000282CD0DDE90C
:103EC000010104F037FA00281FDB1548DDE9011273
:103ED0001BF066FC050003D0287800F0010078B9DB
:103EE000304607F0D3F9044624B900BF0DA0FEF711
:103EF000F5FF13E000BF21461048FEF7EFFF0DE08D
:103F000000BF0FA0FEF7EAFF08E000BF1CA0FEF70D
:103F1000E5FF00BF002401E04FF0FF342046FEBD66
:103F20001400002043616E63656C207375636365E4
:103F3000737366756C2E0D0A0000000038200308AC
:103F400043616E27742063616E63656C20636F6EDE
:103F50006E656374696F6E20726571756573742C1C
:103F60002064657669636520616C7265616479209F
:103F7000636F6E6E65637465642E0D0A0000000049
:103F8000446576696365206973206E6F7420636F82
:103F90006E6E656374696E672E0D0A0070B5054616
:103FA00009486FF00504007860B15DB1FEF76AF969
:103FB00040B10548294608301BF06AFB00B10024D7
:103FC000FEF78BFC204670BDA802002070B50446A9
:103FD0001E480068002835D0002C2BD0A06800288F
:103FE00028DBA068042825DCA06818B9002018493F
:103FF000887014E0A068012802D1154988700EE08D
:10400000A068022802D11249887008E0A06803283D
:1040100002D10F49887002E004200D4988702069A0
:1040200008B1012000E000200949C87002F0C8FF73
:10403000002509E000BF0748FEF750FF00BF6FF002
:10404000050501E06FF00705284670BD1800002047
:104050000C0000201C1F030870B5044600251C48F6
:10406000006800282FD044B32068022825DBA06810
:10407000002822DBA06803281FDCA06818B90020F4
:10408000144908700EE0A068012802D11149087097
:1040900008E0A068022802D10E49087002E003205F
:1040A0000C490870206908B1012000E000200A498D
:1040B000087002F085FF002507E0084803F0C6FA03
:1040C0006FF0050501E06FF00705284670BD0000A0
:1040D000180000203000002032000020E0280308F3
:1040E0002DE9FC471646DFF888900A9A1C000F4617
:1040F00082464FF000081BD0E2B14FF6FF708242BB
:1041000018D2206A18B1408A401E83B200E0B38AF8
:1041100093420FD339685046CDE900910AF0ECFD87
:10412000002807DD7860A08AF0824FF001081BE0CC
:10413000B46A17E0246A15E0256A1DB1688A401E3A
:1041400083B200E0B38AA08A401C81B2994208D8A9
:10415000396882B2CDE9009150460AF0CDFD0028C1
:10416000E0DC2C46002CE7D14046BDE8FC8700008F
:1041700001DA00087CB50C461D460968054BCDE9FF
:104180000031938A2A460AF0CDFD002801DD6060E7
:1041900000207CBD01DA00082DE9FF4F83B00C46FA
:1041A000109F92467878811C99424CD89B1EB3FB95
:1041B000F0F100FB1131002945D1B3FBF0F606EB1D
:1041C0004600C000FEF7D2FC5FEA00083BD0B1B267
:1041D000CDE90018042352462146039804F0EAFB77
:1041E0005FEA000929D04446BD1C4FF0000B1AE0DD
:1041F00028882080B5F80300A080A878A07078787F
:10420000072802D0152804D00AE084F806B002225C
:1042100002E00120A0711022691DE01DFEF740FEA2
:10422000787818340544761EE2D20398DAF818300C
:10423000DAF8202000684946984707B04046BDE8B4
:10424000F04FFEF79DBD07B0BDE8F08F417E11F045
:10425000060F06D10278032A03D1826A0AB982784E
:104260000AB1002204E0C90701D000207047026CA7
:1042700000211DF055BB2DE9F05F9A4615465FEA17
:104280000108074678D0D8F80400002874D0A9881F
:10429000491C89B2884227D2E888C10705D1D8F8DD
:1042A000081040F001002960E88098F800008007BD
:1042B00054D50024F86C10E0428852450BD1028896
:1042C0000A998A4207D1C18842F211021140A1F530
:1042D0000052103A0CD00446406910B1A979C907C0
:1042E000EAD1B8F1000F47D0A879C00744D038E030
:1042F0000026B0F804B017E00189B0F80690314408
:104300008EB241690CB1616100E0F964FEF738FDDD
:104310005FEA497004D50CB1606910E0F86C0EE0FA
:104320000CB1606900E0F86C48B14288524506D192
:1043300002880A998A4202D182885A45DCD0002E2E
:10434000CBD0A988491E89B2A980D8F8042091420F
:10435000C3D2E98821F00101E980BEE7E888C107FE
:1043600003D00020BDE8F09F06E0D8F8081040F028
:1043700001002960E880B7E70120F3E730B58DB090
:10438000054604AACC6904F035FB04F1420005900F
:104390006A4604A9284618F063FF002861D19DF8F9
:1043A000001094F82220914259D19DF8011094F800
:1043B0002320914253D19DF8021094F82420914279
:1043C0004DD19DF8031094F82520914247D19DF8D6
:1043D000041094F82620914241D19DF8051094F8DC
:1043E000272091423BD19DF8061094F82820914255
:1043F00035D19DF8071094F8292091422FD19DF8CE
:10440000081094F82A20914229D19DF8091094F8B7
:104410002B20914223D19DF80A1094F82C20914230
:104420001DD19DF80B1094F82D20914217D19DF8C5
:104430000C1094F82E20914211D19DF80D1094F893
:104440002F2091420BD19DF80E1094F8302091420C
:1044500005D19DF80F1094F83120914201D04FF012
:10446000FF300DB030BD70B5002504468563403087
:1044700004F066FDE06A002802D125636563E56308
:1044800070BD00002DE9F041DFF83C80002798F86E
:10449000000098B1FDF7F6FE80B108F10806346817
:1044A00007E02546646B284604F043FC2846FEF7E7
:1044B00067FC002CF5D13760FEF70FFAC8F80870DA
:1044C00088F80070BDE8F081A8020020704770B540
:1044D0000C00054612D0A07A012804D1E16C11B17C
:1044E0002868FEF7B5FDE188284621F086FC2146C4
:1044F00005F15400BDE8704001F0F7B970BD10B58A
:1045000000281BD0002919D00A7ED20717D000201E
:1045100008648864C8644865C8650866486288623B
:10452000C86108620863C8624882087508734873E6
:104530008873C873087448740120886110BD0968C5
:10454000103001F003FB0028F8D0BDE8104004F063
:1045500072BD70B50C4609691646054611B128684A
:10456000FEF776FD94F8340020B11EB1E188A86B07
:1045700021F051FBA06A18B1206B08B1FEF700FCD6
:104580002046BDE87040FDF7E6BF0000002001496D
:10459000086070473800002010B504460220034927
:1045A00008601EF033FC002010BD00000000002059
:1045B0002DE9FF4F85B05FEA020812AADDF860B06E
:1045C00092E8E0029A465BD0380059D00B4603A926
:1045D00002A8059AFCF782FB040052D10324BAF129
:1045E000000F00D0052445B13EB103988089C01E5C
:1045F00080B2854200D905462C44039801F0DDFACB
:1046000008B1002300E02346DDE9161203981430B8
:1046100001F080F870B30461A0F80C80C0F820901D
:10462000C0E9067BDDE9027189463146866A0446A7
:10463000424653460EB9FE680C36CDE90051617A08
:104640003046FFF79CF8F8680C30B0420FD1009666
:10465000208A224683B2494638461DF007FC0500F1
:1046600005D009F11400216801F084F900E0256803
:104670002C4601E06FF47B740598FEF713FA00E016
:10468000024C09B02046BDE8F08F000018FCFFFF87
:104690002DE9F04387B01D468146DDE91263DDE96F
:1046A00010C7BDF83800DDF83C80E0B1854218D86D
:1046B000002004461AB1107888B11024501C0497C9
:1046C0000094CDE905630DF1040E0EAB8EE80111E7
:1046D0002A464846FFF76CFF07B0BDE8F083022486
:1046E000ECE70248F8E701480830F5E710FCFFFF67
:1046F00010B504460E480078002817D0002C15D0BD
:10470000FDF7C0FD002811D009482146083001F00E
:10471000C6F80446FEF7E1F8002C07D0204604F066
:1047200008FB2046BDE81040FEF72ABB10BD000084
:10473000A80200202DE9F0410746384603F066FE46
:10474000041E59DB04EBC40000EB40002C4901EBD4
:1047500080004068A8B104EBC40000EB400001EB0E
:104760008000006958B104EBC40000EB40000A4629
:1047700002EB800001692348006818F0EFFC012675
:1047800000E0002666B104EBC40000EB40001C4AC8
:1047900052F820101B48006819F010FC05460BE089
:1047A00004EBC40000EB4000154A52F820101548F5
:1047B000006819F0E3FB0546002D0CDA26B1294606
:1047C00011A002F039FA03E0294615A002F034FAEC
:1047D0006FF0030500E0002504EBC40101EB41018B
:1047E000074A02EB81006C220021FEF763FB00BF49
:1047F0000FA0FEF773FB00BF2846BDE8F081000064
:10480000F0050020180000205350505F436C6F7378
:10481000655F5365727665725F506F727400000059
:104820005350505F436C6F73655F506F727400003C
:10483000506F727420436F6E7465787420436C659A
:10484000617265642E0D0A002DE9F04104460027CF
:104850001648006820B344B1206830B1A06820B188
:10486000A6683046FFF766FF1CE014B1D4B120689B
:10487000C0B9002511E005EBC50000EB40000C4974
:1048800051F8200040B105EBC50101EB4101084A98
:1048900052F82100FFF74EFF6D1C002DEBD001E018
:1048A0006FF007073846BDE8F081000018000020CF
:1048B000F00500202DE9F041044600271A48006861
:1048C00060B344B1206830B1A06820B1A66830461A
:1048D000FFF730FF24E014B1FCB12068E8B90025EF
:1048E00019E005EBC50000EB4000104951F820002D
:1048F00080B105EBC50000EB400001EB8000406893
:1049000040B105EBC50101EB4101084A52F8210015
:10491000FFF710FF6D1C002DE3D001E06FF00707DB
:104920003846BDE8F081000018000020F0050020A6
:1049300010B500241748006840B31748006828B134
:10494000154801681348006805F0CCF81348006862
:1049500028B1124801680F4800680BF023F80D4891
:10496000006809F01FF80B480068FDF7E5FFFEF747
:1049700075F900BF0AA0FEF7B1FA00BF0D4804F0B8
:1049800042FA002003490860002401E06FF00604A9
:10499000204610BD18000020080000200400002060
:1049A000537461636B2053687574646F776E2E0D5A
:1049B0000A000000140000202DE9F04104466FF0C9
:1049C0000106002C35D02068002832D000250DE0EB
:1049D0002068405D612808DB2068405D7A2804DC9F
:1049E0002068405D2038216848556D1C2068FEF71E
:1049F00061FBA842ECD811A0FEF75CFB8046424662
:104A00000EA12068FEF742FA80B1206803F0EEFBA9
:104A1000070010D0201DB847060000D10BE0F01CA5
:104A200048B1C01D38B16FF0030604E06FF0020614
:104A300001E06FF005063046BDE8F081515549545C
:104A40000000000070B58CB0044600250026214609
:104A5000684600F06BF8002838DB00BF20A0FEF7A6
:104A60003DFA00BF6846FFF7A7FF054615F1040FA2
:104A70000CD015F1030F0FD015F1020F21D100BF9B
:104A800018A00099FEF72AFA00BF1AE000BF1BA089
:104A9000FEF724FA00BF14E01D480068012803D186
:104AA0000020FFF707FF06E019480068022802D13E
:104AB0000020FFF7C9FE0020154908601EF0BCFC6D
:104AC00000BF00BF02F00EFD012606E002F00AFD65
:104AD00000BF10A0FEF702FA00BF30460CB070BD58
:104AE0000D0A0000496E76616C696420436F6D6D3C
:104AF000616E643A2025732E0D0A000046756E63C0
:104B000074696F6E204572726F722E0D0A0000007C
:104B1000000000200D0A496E76616C696420436FC5
:104B20006D6D616E642E0D0A000000002DE9F047E6
:104B300004460D460026002C4DD0002D4BD02846B3
:104B4000FEF7B8FA002846D02846FEF7B3FA8046AA
:104B500028461DF04DFA2060002060602068002883
:104B600036D000272068FEF7A5FA401C05442846E9
:104B7000FEF7A0FA804620E0052E1AD204F10800C4
:104B800040F8369048461DF053FA014604F10800FB
:104B900000EBC6004160761C4846FEF78BFA401CCD
:104BA00005444846FEF786FA401CA8EB000800279B
:104BB00003E04FF000086FF00407B8F1000F05DDC7
:104BC00028461DF015FA5FEA0009D5D1666004E0B9
:104BD0004FF0FF3701E06FF005073846BDE8F0877A
:104BE00002780B789A4215D142784B789A4211D1CB
:104BF00082788B789A420DD1C278CB789A4209D1CB
:104C000002790B799A4205D140794979884201D1DC
:104C1000012070470020704770B513460D004FF01B
:104C2000000419D0C3B1082816D2DFE800F0151728
:104C300017060B0E150B01240EE0288811888842F8
:104C4000F9D009E028681168F9E7062219462846D4
:104C5000FEF71CF90028EED0204670BD28781178A8
:104C6000EDE7017849B9417839B9817829B9C17836
:104C700019B9017909B9407908B1002070470120BC
:104C800070472DE9FF4F8BB099460B98924600284C
:104C900077D00C981BF06AFD0028F9D0BAF1000F0C
:104CA000F6D0B9F1000FF3D00027B8460126BB4675
:104CB000D9E00023CDE000252E46C5E020696168DB
:104CC00030F81500884228D2E1681022085C8DF87F
:104CD00004B08DF805B08DF8062080228DF80820EC
:104CE0008DF809B08DF80AB08DF80B205F228DF891
:104CF0000C209B228DF80D2034228DF80E20FB22F3
:104D00005946CDF800B08DF807B08DF80F2019285E
:104D100004D01A2815D01C2834D090E08DF800104B
:104D20008DF801102069E16830F8150008444078DA
:104D30008DF802002069E16830F815000844807899
:104D40001CE02069E26830F81510114449788DF8AC
:104D5000001030F81500E168084480788DF80100F3
:104D60002069E16830F815000844C0788DF8020029
:104D70002069E16830F81500084400798DF80300D7
:104D80000AE07CE02069E168102230F81500014457
:104D90006846491CFEF784F809EB07109DF80010DF
:104DA000027891424BD19DF801104278914246D150
:104DB0009DF802108278914241D19DF80310C2788B
:104DC00091423CD19DF804100279914237D19DF86F
:104DD00005104279914232D19DF8061082799142B4
:104DE0002DD19DF80710C279914228D19DF8081065
:104DF000027A914223D19DF80910427A91421ED144
:104E00009DF80A10827A914219D19DF80B10C27A4E
:104E1000914214D19DF80C10027B91420FD19DF864
:104E20000D10427B91420AD19DF80E10827B914277
:104E300005D19DF80F10C07B814200D101266D1C69
:104E400016B108F101080CE0A068A8423FF636AFA1
:104E50002346DDE90B0104AA0BF050FB04007FF4AC
:104E60002AAF7F1C16B15745FFF423AFD04503D1BD
:104E700000200FB0BDE8F08F6FF00100F9E74FF0B0
:104E8000FF30F6E72DE9F041054680690F46002620
:104E900058B1E86948B100240AE0E86904EB04115C
:104EA0000844394600F00AF808B1012603E0641C02
:104EB000A869A042F1D83046BDE8F08170B50C4633
:104EC000054612F0AAF9204612F0A7F96878617831
:104ED00088423DD1A878A178884239D1E878E17834
:104EE000884235D128792179884231D16879617930
:104EF00088422DD1A879A179884229D1E879E17930
:104F0000884225D1287A217A884221D1687A617A2B
:104F100088421DD1A87AA17A884219D1E87AE17A2B
:104F2000884215D1287B217B884211D1687B617B27
:104F300088420DD1A87BA17B884209D1E87BE17B27
:104F4000884205D1287C217C884201D1012070BD96
:104F5000002070BDA0B1012181700A4989780170DB
:104F60000849C978C1700749097941701021017158
:104F70000121417100228271C271017242728272FA
:104F8000704700000C0000207CB506460C46154614
:104F90000120A04000908DF8045001208DF80500FC
:104FA00000208DF806008DF80700694630460AF0AB
:104FB0001FFE7CBD2DE9FC410546002D7BD02868F5
:104FC000002878DD6868002875D06868FEF772F8F8
:104FD0000C2870D3694668681CF0C0FFDDE9000149
:104FE00003F0A8F9061E5DDBC6EBC60000EB40002F
:104FF000364901EB0013364806CB1AF0D1FB04000A
:1050000047D0208D00283CD0608DC8B3A08DB8B3A8
:10501000E08DA8B3208E98B3608E88B300BF2D4872
:10502000FDF75CFF00BFC6EBC60101EB4101274B5A
:1050300003EB0111CA6AC6EBC60101EB410103EBA8
:105040000110214618F0C0FC618EC6EBC60202EBCF
:1050500042021E4B03EB02121F4B9068012202F02A
:1050600005FC618DC6EBC60202EB4202174B03EB57
:105070000212194B9068012202F0F8FB002721E090
:10508000FFE700BF15A0FDF729FF00BF6FF0030782
:1050900018E000BF1CA0FDF721FF00BF6FF0030761
:1050A00010E008E000BF1DA06968FDF717FF00BF12
:1050B0006FF0030706E000BF22A0FDF70FFF00BF5F
:1050C0006FF005073846BDE8FC8100005C06002053
:1050D00014000020AC21030851E200084E6F205359
:1050E00050504C452053657276696365206469733E
:1050F000636F7665726564206F6E206465766963A0
:10510000652E0D0A000000004E6F2044657669632D
:105110006520496E666F2E0D0A0000004E6F2063F9
:105120006F6E6E656374696F6E2077697468204274
:10513000445F414444522025732065786973747339
:105140002E0D0A0055736167653A20436F6E6669DC
:10515000677572655350504C45205B42445F414433
:1051600044525D2E0D0A00002DE9FF410446002641
:10517000002732480068002859D0002C51D06068C0
:10518000FDF798FF0C284CD36068002849D002A98D
:1051900060681CF0E3FE2068012827D0022812D0A6
:1051A000032833D1A069002809DBA069012806DCA7
:1051B000A06908B1012000E00020064602E06FF07F
:1051C000050526E000BF206900280BDB20690128C7
:1051D00008DC2069012808D10127DDE9020117F068
:1051E00045FC02E06FF0050513E000BF00203B46E0
:1051F000CDE900601148DDE90212006800F026F8F0
:1052000008B9002501E06FF0030502E06FF0050525
:1052100000BF00BF6DB10AA001F074FC6FF005057E
:1052200007E007A001F06EFC6FF0050501E06FF0EC
:105230000705284604B0BDE8F081000018000020F2
:10524000436F6E6E6563744C450000002DE9FF43AB
:105250008DB007461D46DDE91889002F79D09DF8ED
:10526000380078B99DF8390060B99DF83A0048B91E
:105270009DF83B0030B99DF83C0018B99DF83D0001
:105280000028EBD002F0E6FF061E78DBDDE90E0118
:1052900003F050F8401C002869D18DF828500E9872
:1052A000CDF82900BDF83C00ADF82D000CAB0AAAE2
:1052B0000121384607F0C9FDB9F1000F07D00CAB4A
:1052C0000AAA0121384605F099FD044600E00124B0
:1052D000002C45DB3220ADF81C00C820ADF81E00C4
:1052E0000020ADF8240042F21070ADF82600002036
:1052F000ADF8200044F62060ADF8220000202749D8
:1053000007AACDE90282CDE904100CB10EA800E095
:105310000020CDE900500CB9012000E00020034638
:1053200064221146384606F053F8044694B900BF8B
:105330001BA0FDF7D3FD00BFC6EBC60000EB40008D
:10534000204901EB00100E990160BDF83C108180EE
:105350001FE01CE000BF21461BA0FDF7BFFD18E0C9
:1053600000BF00E00BE021A0FDF7B8FD11E000BF99
:1053700028A0FDF7B3FD00BF6FF0010409E000BFF6
:105380002CA0FDF7ABFD00BF6FF0020401E04FF071
:10539000FF34204611B0BDE8F08300007DB6000860
:1053A000436F6E6E656374696F6E205265717565CB
:1053B0007374207375636365737366756C2E0D0A61
:1053C000000000005C060020556E61626C65207470
:1053D0006F2063726561746520636F6E6E656374C0
:1053E000696F6E3A2025642E0D0A0000556E6162C9
:1053F0006C6520746F206164642064657669636500
:1054000020746F205768697465204C6973742E0D81
:105410000A00000044657669636520697320616C49
:10542000726561647920636F6E6E65637465642E66
:105430000D0A0000436F6E6E656374696F6E206CB9
:10544000696D697420726561636865642E204E6FB2
:1054500020636F6E6E656374696F6E732061766131
:10546000696C61626C652E0D0A00000041F28831A2
:1054700048434FF4C871B0FBF1F00A21401DB0FB66
:10548000F1F070474FF4FA5148430911B0FBF1F0C5
:105490000A21401DB0FBF1F070474FF47A61484398
:1054A000C910B0FBF1F00A21401DB0FBF1F07047CC
:1054B00010B504004FF00000024600D041B910BD05
:1054C0008B5C521C002BFAD01A44A242F7D8401C25
:1054D000A242F5D310BD2DE9F84381461E46904601
:1054E0000F4600251020FDF741FB040010D00020DE
:1054F000C4E90260C4E9007801464B460C2207204B
:105500000094FCF7F7FE050002D12046FDF738FCB9
:105510002846BDE8F883000038B505465820FDF759
:1055200025FB04002DD058220021FDF7C3FC164AAC
:105530004FF6FF731188481C80B21080984200D14A
:1055400040201080E1804FF4704020810120A07243
:105550000220E0724FF4287060852085A385182210
:105560000A4904F13000FAF72BFE2B46542206219B
:1055700003200094FCF7BEFE18B92046FDF700FC9E
:105580000024204638BD000024020020E01103085A
:10559000F8B50D46064601291BD014273846FDF7FD
:1055A000E5FA04001BD03A460021FDF783FC0D49C3
:1055B0008868401C886001D50120886020602571C2
:1055C00033461022002107200094FCF793FE10B10F
:1055D00005E01C27E2E72046FDF7D2FB0024204629
:1055E000F8BD000070020020FFB581B005460E46F0
:1055F000002400277DB39DF80C0070B99DF80D00C4
:1056000058B99DF80E0040B99DF80F0028B99DF8D3
:10561000100010B99DF81100E8B13C20FDF7A6FA82
:10562000040018D03C2200212046FDF743FCA67060
:105630000398C4F80300BDF81000A4F807002B4637
:105640003822032105200094FCF754FE074617B9C1
:105650002046FDF795FB204605B0F0BDF8B50E4697
:105660001546074611461AF0E1F8040016D1142039
:10567000FDF77CFA040011D014220021FDF71AFC7A
:10568000A660A5813B4610220C2103200094FCF764
:1056900031FE18B92046FDF773FB00242046F8BD03
:1056A0002DE9F84F05460AA81E4690E8000E174659
:1056B00088462420FDF75AFA040022D02422002133
:1056C000FDF7F8FB124A5188481C80B25080B0F5B3
:1056D000807F00D101205080A180A4F8068027811E
:1056E00028682060A672C4F81090C4E906AB05F1E2
:1056F0005C032022042103200094FCF7FBFD10B181
:10570000A088BDE8F88F2046FDF73AFB0020F8E7B7
:10571000240200202DE9F84380461D4616460F4618
:105720003020FDF723FA04002BD030220021FDF7B2
:10573000C1FB1549C868401CC86001D50120C8607C
:1057400020602772667265622DB12846FDF70EFA59
:10575000A06210B911E0A06A18B12A460021FDF735
:10576000A9FB43462C22002107200094FCF7C2FD30
:1057700038B9A06A08B1FDF703FB2046FDF700FB2E
:1057800000242046BDE8F8837002002008B50023FD
:10579000ADF800100121ADF802106A461EF0C8FEF7
:1057A00008BD000030B585B00C0005462ED002467D
:1057B000694604A8FBF700FB002827D10098A1B296
:1057C000583019F0E3FF04001DD0D4F80510019102
:1057D000B4F80900ADF8080003AB2846029AFCF7BC
:1057E000ACFD042128B99DF80C00022580B10128E8
:1057F00016D0A1700022611D009811F026F9A18930
:10580000009811F0D1FA049817F02CF805B030BDCB
:105810000320E070A5702146009811F079F8F2E7B6
:1058200000984FF47A71064A036900684B43A189D6
:10583000FDF7D2FBE0610120A070E570E3E7000016
:10584000DB49010803B581B020230090002202A9A2
:105850000320FCF7B1FD0EBD38B54FF0FF340090CA
:10586000142300220620FCF7A7FD10B1FCF773FEFD
:105870000024204638BD03B581B0102300900422D7
:1058800002A90720FCF798FD0EBD03B581B058238F
:105890000090002202A90720FCF78EFD0EBD03B583
:1058A00081B034230090002202A90720FCF784FD78
:1058B0000EBD08B51423009000220520FCF77CFDE6
:1058C00008BD03B581B00C230090002202A9072077
:1058D000FCF772FD0EBD1CB50C23CDE900010022C2
:1058E00001A90720FCF768FD1CBD38B54FF0FF3556
:1058F0000090542300220620FCF75EFD04000AD02D
:10590000A07A012803D1A06C08B1FDF739FA20462E
:10591000FCF721FE0025284638BD38B54FF0FF358D
:105920000090242300220620FCF746FD040009D045
:10593000206A18B104F1200003F0B4FA2046FCF705
:105940000AFE0025284638BD03B581B040230090EB
:10595000062202A90320FCF72FFD0EBD17B581B06A
:1059600004463823032202A905200094FCF724FDF5
:1059700004B010BD10B500F00CF9002803D0BDE84C
:10598000104003F0D3BB10BD03B581B038230090A5
:10599000002202A90720FCF70FFD0EBD08B5102359
:1059A000009000220620FCF707FD08BD33B581B04A
:1059B0004FF0FF3500902023042202A90320FCF7BA
:1059C000FBFC040007D0E1682068FDF741FB20469E
:1059D000FCF7C1FD002528463EBD03B581B02C2350
:1059E0000090002202A90320FCF7E6FC0EBD000097
:1059F00013B586B00020049004A805A90123CDE9C1
:105A000000104B48DDE9061200680CF086F80446E9
:105A100000208DF808008DF809008DF80A008DF837
:105A20000B008DF80C008DF80D009DF818009DF806
:105A30000810884223D19DF819009DF8091088426A
:105A40001DD19DF81A009DF80A10884217D19DF8C3
:105A50001B009DF80B10884211D19DF81C009DF889
:105A60000C1088420BD19DF81D009DF80D10884246
:105A700005D1162200212F48FDF71CFA54E000241E
:105A80004FE09DF8180004EB440101EBC401294AE2
:105A900012F81110884243D19DF8190004EB44011B
:105AA00001EBC40102EB41014978884238D19DF8ED
:105AB0001A0004EB440101EBC40102EB41018978B7
:105AC00088422DD19DF81B0004EB440101EBC40179
:105AD00002EB4101C978884222D19DF81C0004EBF9
