:020000040800F2
:1000000080770020150300081D0300081F03000867
:100010002103000823030008250300080000000056
:10002000000000000000000000000000270300089E
:1000300029030008000000002B030008F10A020851
:100040002F0300082F0300082F0300082F030008C8
:100050002F0300082F030008C98100082F030008A0
:100060002F0300082F0300082F0300082F030008A8
:100070002F0300082F0300082F0300082F03000898
:100080002F0300082F0300082F0300082F03000888
:100090002F0300082F0300082F0300082F03000878
:1000A0002F0300082F0300082F0300082F03000868
:1000B0002F0300082F0300082F0300082F03000858
:1000C0002F0300082F0300082F0300082F03000848
:1000D0002F0300082F030008211102082F03000836
:1000E0002F0300082F0300082F0300082F03000828
:1000F0002F0300082F0300082F0300082F03000818
:100100002F0300082F0300082F0300082F03000807
:100110002F030008F91002082F0300082F0300081E
:100120002F0300082F0300082F0300082F030008E7
:100130002F0300082F0300082F0300082F030008D7
:100140002F0300082F0300082F0300082F030008C7
:100150002F0300082F0300082F0300082F030008B7
:100160002F0300082F0300082F0300082F030008A7
:100170002F0300082F0300082F0300082F03000897
:100180002F0300082F03000800F002F800F0B2F877
:100190000AA090E8000C82448344AAF10107DA45E2
:1001A00001D100F0A7F8AFF2090EBAE80F0013F082
:1001B000010F18BFFB1A43F001031847EC0E0300B0
:1001C0000C0F03000A444FF0000C10F8013B13F031
:1001D000070408BF10F8014B1D1108BF10F8015BA0
:1001E000641E05D010F8016B641E01F8016BF9D193
:1001F00013F0080F1EBF10F8014BAD1C0C1B09D1EA
:100200006D1E58BF01F801CBFAD505E014F8016B5B
:1002100001F8016B6D1EF9D59142D6D370470000ED
:100220000023002400250026103A28BF78C1FBD8FF
:10023000520728BF30C148BF0B6070476E2900F0DD
:100240008782702900F0D183662925F01481652901
:1002500025F01181672925F00E816129AFF3008017
:1002600003681B0A28BF41F08001692900F034822D
:10027000642900F03182752900F02E826F2900F088
:100280005F83782900F09D83E92900F0F982E42951
:1002900000F0F682F52900F0F382EF2900F05C838C
:1002A000F82900F09C830368DB0928BF41F0800136
:1002B000632900F07D87732900F08287E32900F02D
:1002C0008D87F32900F09287002070471FB525F035
:1002D000CDF801F003F804000020002124F0C0FE56
:1002E000401C60600020002124F0A4FEE0601FBDDF
:1002F00010B510BD00F0C5FF1146FFF7E7FF24F071
:100300008DFE01F09DF803B4FFF7F2FF03BC01F08E
:10031000E1F800000948804709480047FEE7FEE78A
:10032000FEE7FEE7FEE7FEE7FEE7FEE7FEE7FEE7A5
:1003300004480549054A064B70470000010B0208B6
:1003400089010008807100208077002080730020E0
:10035000807300201CB50C46064B7B446946009018
:10036000204600F00EFA04460020694600F01CFA10
:1003700020461CBD4B0400007CB51D4616460C00F3
:10038000009001D02044401E074B7B442A4669461A
:100390000190304600F0F5F905461CB10020694691
:1003A00000F002FA28467CBD2504000040EA010363
:1003B00010B59B070FD1042A0DD310C808C9121F0E
:1003C0009C42F8D020BA19BA884201D9012010BD48
:1003D0004FF0FF3010BD1AB1D30703D0521C07E015
:1003E000002010BD10F8013B11F8014B1B1B07D179
:1003F00010F8013B11F8014B1B1B01D1921EF1D1EA
:10040000184610BD40EA0103024630B59B0710D1E3
:100410004FF0013400E008C208C91D1B9D4315EAD6
:10042000C41FF8D013F0FF0102F8011B0DD01B0A06
:10043000F8E711F8013B002B02F8013B05D011F859
:10044000013B002B02F8013BF3D130BD10B5431C3A
:1004500002E010F8011B71B18107FAD14FF00132AF
:1004600002C88C1A8C4314EAC211F9D0C01A0A06C9
:1004700003D0C01E10BDC01A10BD0A0401D0801EDA
:1004800010BD0902FCD0401E10BD032A40F230808E
:1004900010F0030C00F0158011F8013BBCF1020FC5
:1004A000624498BF11F801CB00F8013B38BF11F846
:1004B000013BA2F1040298BF00F801CB38BF00F85D
:1004C000013B11F0030300F06780083AC0F0088098
:1004D00051F8043B083A51F804CBA0E80810F5E7BE
:1004E000121D5CBF51F8043B40F8043BAFF30080A1
:1004F000D20724BF11F8013B11F801CB48BF11F816
:10050000012B24BF00F8013B00F801CB48BF00F8E5
:10051000012B7047431A28BF9A427FF6B6AF032AD1
:100520001044114440F2268010F0030F1EBF11F852
:10053000013D521E00F8013D10F0030F7FF4F6AFAD
:1005400011F0030300F03383083AC0F00B8051F838
:10055000043D083A51F804CD40F8043D40F804CD7C
:10056000FFF7F3BF121D5CBF51F8043D40F8043D96
:10057000AFF30080D20724BF11F8013D11F801CD7F
:1005800048BF11F8012C24BF00F8013D00F801CD4F
:1005900048BF00F8012C704710B5203AC0F00B801E
:1005A000B1E81850203AA0E81850B1E81850A0E877
:1005B0001850BFF4F5AF5FEA027C24BFB1E81850D1
:1005C000A0E8185044BF18C918C0BDE810405FEA41
:1005D000827C24BF51F8043B40F8043B08BF7047BD
:1005E000D20728BF31F8023B48BF11F8012B28BFC2
:1005F00020F8023B48BF00F8012B704702F0FF03D0
:1006000043EA032242EA024200F0FDBA7047704713
:10061000704770B5044685690068C10601D530266B
:1006200000E02026C00707D070BDD4E90121304684
:100630009047206A401C20626D1EF6D570BD70B5D3
:10064000044685690078C00707D170BDD4E901214F
:1006500020209047206A401C20626D1EF6D570BD98
:1006600009684A0501D540B27047C905FCD500B2FA
:10067000704709684A0501D5C0B27047C905FCD565
:1006800080B2704770B50C460546012A05D028781F
:10069000800600D5EA69002302E0012305E05B1C27
:1006A000934202D2E05C0028F9D1A869E618C01A8A
:1006B000A861286A184428622846FFF7AAFF04E0C8
:1006C000D5E9012114F8010B9047B442F8D328462C
:1006D000FFF7B5FF70BD00002DE9F041064600248C
:1006E00010687529314616A510D0FFF7B9FF00280C
:1006F00002DA404213A507E031688A0701D512A546
:1007000002E0490704D511A5012401E0FFF7B1FF7C
:1007100000210A2206F1240709E0B0FBF2FCB0FB3D
:10072000F2F302FB1C00303078541846491C0028B4
:10073000F3D123462A463046BDE8F04100F0C8BA5E
:10074000000000002D0000002B0000002000000031
:1007500011680268006A530501D508700AE0D305E4
:1007600001D5088006E0130603D5C217C1E90002CF
:1007700000E008600120704701694A1C02610878A6
:10078000704700B58FB0CDE90131002105910549D1
:100790007944CDE903101146684600F031F90FB0F5
:1007A00000BD0000E5FFFFFF0A6802F8010B0A60C8
:1007B0007047D1E900239A4202D2531C0B6010709B
:1007C000704700002DE9FF5F15468A460446DFF8B2
:1007D000AC80F8440027D8E900103E46CDE900106F
:1007E00010E03AF816106A4602A800F003FD411C1A
:1007F00007D02178890603D5E269391891420DD8CE
:100800000744761C2078800602D5E069B84205DDF1
:10081000AE42E6DB3AF816000028E2D1A069C01B20
:10082000A0612046FFF7F5FED8E90010CDE90010E1
:10083000002017E03AF818106A4602A800F0DAFC27
:10084000B0F1FF3F81460BD000250DF1080B05E00C
:10085000D4E901211BF8050090476D1C4D45F7D3E5
:1008600008F10100B0428046E4DB206A384420628F
:100870002046FFF7E4FEBDE8FF9F000016EF0200F0
:100880002DE9F0418046D21D22F007020025D2E971
:100890000002F52915A614D0011E72F1000106DA36
:1008A0000023D0EB030063EB020211A608E0D8F8A6
:1008B00000108B0701D50FA602E0490701D50EA64F
:1008C00001251146002408F1240704E000F0BBF9DB
:1008D00030323A55641C50EA0102F7D12B463246B9
:1008E00021464046BDE8F04100F0F2B900000000AA
:1008F0002D0000002B0000002000000030B400217B
:1009000000F1240408E002F00705D208303542EA7D
:100910004372DB086554491C52EA0305F3D10468AD
:10092000002310A2250708D504F020040C4304D0AE
:10093000C46901230CA2641EC46130BC00F0C8B9B4
:1009400010B5044621461068FFF793FE0246204684
:10095000BDE810400023D1E7D21D22F00701D1E904
:100960000023CBE70000000030000000F0B40D468B
:100970000188090502D5214C7C4402E01F4C7C44CF
:100980000E34002100F1240608E002F00F071209DE
:10099000E75D42EA03721B097754491C52EA0307D8
:1009A000F3D102780023120704D5702D06D009B1C7
:1009B000022311342246F0BC00F08AB9012310341E
:1009C000F8E770B504460D4621461068FFF751FE62
:1009D000024629462046BDE870400023C6E7D21DE6
:1009E00022F00703D3E90023C0E70368126843F04D
:1009F000200303600823C3610023B7E778ED0200FA
:100A00002DE9F05F894604464FF0000ADFF874B123
:100A1000FB44C0F820A02046E1688847002874D035
:100A2000252806D0D4E901219047206A401C206285
:100A3000F1E700265F462046E16888472028054602
:100A400007DB312D05D2781910F8200C08B10643C8
:100A5000F1E7B00701D526F00406C4F81CA0002772
:100A6000C4F818A02A2D09D0284624F0D0FA38B3AB
:100A700004EB8708303DC8F8185019E059F8041BFA
:100A8000204604EB87029161E1688847012F054603
:100A900018D1E069002820DA26F020061DE0D8F8F9
:100AA000180000EB800005EB40003038C8F8180053
:100AB0002046E1688847054624F0A9FA0028EED1CF
:100AC000012F0AD02E2D08D12046E16888477F1CCF
:100AD0000546022F46F02006C4DBA069002803DA91
:100AE000404246F00106A061F00701D026F0100652
:100AF0006C2D0BD0682D09D04C2D39D06A2D35D0F6
:100B0000742D35D07A2D33D016E038E0E1682F46C9
:100B100020468847B842054609D16C2F26D04FF4AD
:100B20008060E168064320468847054604E06C2F54
:100B30001AD04FF4807006430DB3A5F14100192877
:100B400002D8203546F400664A46294620462660EB
:100B50004E46FFF773FB80B101280BD0F61D26F03F
:100B6000070000F1080956E74020E4E78020D8E7B5
:100B70000020D6E706F104094DE7284652E7206A2F
:100B8000BDE8F09F08ED0200431A28BF9A427FF6A5
:100B900003AD104410F0030F11441EBF11F8013DC6
:100BA000521E00F8013D10F0030F7FF4F6AF103A2B
:100BB000C0F00A8010B531E91850103A20E91850F9
:100BC000BFF4F9AFBDE81040530724BF31E9081066
:100BD00020E9081044BF51F8043D40F8043D12F0EC
:100BE000030F08BF7047D20728BF31F8023D48BF46
:100BF00011F8012C28BF20F8023D48BF00F8012C55
:100C000070474FF000020429C0F0128010F0030C6E
:100C100000F01283CCF1040CBCF1020F18BF00F8F5
:100C2000012BA8BF20F8022BA1EB0C0100F004BBA4
:100C30005FEAC17C24BF00F8012B00F8012B48BFFC
:100C400000F8012B704730B5B0F10A024FEA900E60
:100C500071F100034EEA817EB0EB0E0061EB910171
:100C60004FEA101E4EEA017E10EB0E0041EB11110F
:100C70004FEA102E4EEA016E10EB0E0041EB1121EF
:100C80004FEA104E4EEA014E10EB0E0041EB1141BF
:100C9000401841F100014FEAD00040EA41704FEAAC
:100CA000D10110EB80054FEA810444EA907444EBD3
:100CB00001046D1944EB0404521BA3414FF00003DF
:100CC00048BF0A3200D530BD401C41F1000130BDA3
:100CD0002DE9F0470D4699469246044600F1240856
:100CE0000168880604D5E06921F01001216000E068
:100CF0000120A84201DD471B00E00027A1697A1905
:100D000002EB0900081AA0612078C00602D4204630
:100D1000FFF77FFC002608E0D4E901211AF806005D
:100D20009047206A401C761C20624E45F4DB2078F8
:100D3000C0060AD52046FFF76CFC06E0D4E9012185
:100D400030209047206A401C2062381EA7F101071E
:100D5000F4DC07E0D4E9012118F805009047206A87
:100D6000401C2062281EA5F10105F3DC2046FFF798
:100D700066FC2078000602D50220BDE8F08701203D
:100D8000FBE770472DE9FF4F0C461E464FF0FF373B
:100D90008BB0D2E90001DDF860800A908A46C1F389
:100DA0000A5505B93D46002108464FF00000BAF14A
:100DB000000F00F4400005DA00EB80004FF4400122
:100DC00001EA50004FEA9059B9F1010F00DDB94630
:100DD0000A9850EA4A000ED044F61050A5F2FF35AA
:100DE00045432F14B8F1000F1ED07542291E1EDD99
:100DF000C9F100021CE0B8F1010F4FF0000001D072
:100E0000302103E0F24305E02154401CB042FBDBFB
:100E100030460022002121540B99C1F80880C1E915
:100E200000200FB0BDE8F08FBD1B6D1CDEE74A4609
:100E300000DA694206A800F095FA06AB93E80700CD
:100E400003AB83E8070050460A9900F04AFB8DE89F
:100E50000700A0F500501F3800900398002D09DD11
:100E600042F21F014A46084403A90390684600F075
:100E7000A9FD08E0A0F500504A461F3803A90390D9
:100E8000684600F0B3FD8DE807000004000C03D0B5
:100E90004FF0FF30410800E01046B8F1000F03D0DA
:100EA0000022009215461EE0751E05D4FFF7CBFE0A
:100EB000303262556D1EF9D5B3460122084302D087
:100EC00000227F1C04E02078302801D100227F1E00
:100ED000002A099786D01DE0112D07DAFFF7B3FE2F
:100EE000303262556D1C50EA0102F5D1084302D040
:100EF0000098C8B10EE00021681E05E0235C625C2A
:100F000063542254401E491C8142F7DBAB46A81BA8
:100F1000401E0990002004F80B000B98099AC0F8B5
:100F20000880C0E9002B7CE711264FF0000859E744
:100F30002DE9F04F88460446D21D22F0070191B0FA
:100F4000D1E90001CDE90A0124F049F802460B98E5
:100F5000C00F01D02D2007E02068810701D52B208C
:100F600002E0202101EAC000032A099001D0072AEB
:100F700005DB03464146204600F0B4F90BE120783A
:100F8000800601D5E06900E00620B8F1650F8146D2
:100F900006D0B8F1660F18D0B8F1670F70D131E004
:100FA0000020B9F1110F009001DB112301E009F1DC
:100FB00001030AAA01A90CA8FFF7E4FEDDE90C7001
:100FC000002609F10105834647E001204B460090C9
:100FD0004FF000470AAA01A90CA8FFF7D3FEDDE9EC
:100FE0000DB00C995D46002610B909F101000D18ED
:100FF000B9EB050003D4C0F1FF3609F10105A5EBFB
:1010000009002BE0B9F1010F01DA4FF001090020CE
:10101000B9F1110F0090484601DD112300E00346AD
:101020000AAA01A90CA8FFF7ADFEDDE90C704D4638
:1010300000268346207800070AD4AB4500DA5D46D7
:1010400001A8012D04DD411911F8011C302907D038
:101050004F4502DA17F1040F04DA012082460FE04F
:101060006D1EEEE7002F02DCED1B3E4403E0781C12
:10107000A84200DD7D1CB81B00F1010A4FF00047BB
:101080002078000703D4AA4501DB4FF0FF3A002186
:10109000B7F1004F0DF143088DF8431024D0022022
:1010A0002B23002F01DA7F422D230A21021EA0F1FB
:1010B000010000DC5FB197FBF1FC97FBF1F201FB53
:1010C0001C7C17460CF1300C08F801CDEEE7A8F1B6
:1010D000010003702188090501D5452100E0652143
:1010E000A0F1010800F8011C09980FA9A1EB08075D
:1010F000FF1D00B10120411901EBEA70A1693844DC
:10110000081A401EA0612078C00602D42046FFF7CE
:1011100080FA099828B1D4E901219047206A401C3F
:1011200020622078C00622D52046FFF772FA1EE022
:10113000002E04DBB34502DD01A8805D00E0302015
:10114000D4E901219047206A401C2062761CAAF154
:1011500001005FEA000A0AD100F0C0F8C068016827
:10116000405CD4E901219047206A401C2062281E7F
:10117000A5F10105DCDC07E0D4E9012118F8010B39
:101180009047206A401C2062381EA7F10107F3DC5B
:101190002046FFF754FA032011B043E610B5436927
:1011A00013B1AFF3008001E0FFF76CFA012010BD2E
:1011B000127800F124010A7000224A700122EDE742
:1011C00011684FF0FF32E9E710B5436913B1AFF38F
:1011D000008001E0FFF7F6FA012010BD128800F14F
:1011E000240182840022C2840122EDE711684FF0BD
:1011F000FF32E9E770B516460C46054600F066F882
:10120000036893F80101012806D0FF2C0FD8185D60
:1012100068B101202C7070BDD3F807013246214619
:1012200003F2071303442846BDE8704018474FF007
:10123000FF3070BD4FF0000200B51346944696464D
:10124000203922BFA0E80C50A0E80C50B1F12001D9
:10125000BFF4F7AF090728BFA0E80C5048BF0CC087
:101260005DF804EB890028BF40F8042B08BF7047E5
:1012700048BF20F8022B11F0804F18BF00F8012B57
:101280007047754600F0E2F8AE46050069465346E1
:1012900020F00700854618B020B5FFF749F8BDE8F3
:1012A00020404FF000064FF000074FF000084FF0CD
:1012B000000B21F00701AC46ACE8C009ACE8C0095E
:1012C000ACE8C009ACE8C0098D46704710B500F025
:1012D00005F8001D10BD00BF893D020000487047A1
:1012E000407100202DE9F0411F46044603260168A5
:1012F000072A01F4006004DB08B116A505E016A575
:1013000003E008B115A500E015A521F0100020604C
:10131000A069C01EA0610FB1401EA0612046FFF76A
:1013200078F94FB1D4E9012138469047206A401C32
:101330002062C01C206206E0206AFAE7D4E901219D
:1013400015F8010B9047761EF8D22046FFF777F983
:10135000BDE8F0814E414E006E616E00494E460080
:10136000696E66002DE9F047814616468AB033481B
:1013700078440DC88DE80D0030487844801C03ACDB
:101380000DC884E80D0041F69B300844372190FBDE
:10139000F1F290FBF1F5A5F1800501FB12041B3C75
:1013A00002D56442012000E00020DFF890A08046D2
:1013B0000027FA44AAF1BE0A0DE0E00709D0324640
:1013C000684607EB47010AEB810100F00FFB8DE84F
:1013D000070064107F1C002CEFD1184F7F44AC3FF6
:1013E00018E0E80714D007EB04100DF1180A90E894
:1013F0000E008AE80E00C068F04201D198190890EA
:10140000324606A903A800F0F1FA03AB83E807000F
:101410006D10641C002DE4D132466946B8F1000F0E
:1014200003A802D000F0CEFA01E000F0DFFAC9E92B
:101430000001C9F808200AB0BDE8F08738E40200CE
:101440000446AFF300802046FEF75DFF004870477A
:10145000207100204FF0013C50F8042B51F8043B60
:101460009A4221D1A2EB0C03934313EACC1317D178
:1014700050F8042B51F8043B9A4215D1A2EB0C030F
:10148000934313EACC130BD150F8042B51F8043BCF
:101490009A4209D1A2EB0C03934313EACC13DBD09D
:1014A0004FF00000704700BFD01A01BAB1FA81F1C5
:1014B00001F0180122FA01F0CB40C1F12001DBB2AA
:1014C000C0B2C01A2CFA01F3D11A914311EAC31128
:1014D000E6D1704701491820ABBEFEE726000200A6
:1014E00070475FEA400C08BF91F0000F4FEA8C2371
:1014F0004FEAC12243EA51514FEA1C5018BF00F590
:10150000F0404FEA300018BF41F000415FEA6C5CE8
:1015100000F02980BCF1FF3F08BF40F080407047D9
:10152000130C06BF12044FF0100C4FF0000C130EFA
:1015300004BF12020CF1080C130F04BF12010CF1CE
:10154000040C930F04BF92000CF1020CD30F04BFE4
:1015500052000CF1010C11464FF00002A0F11F00E7
:10156000A0EB0C00704711F0004F08BF704731F03E
:1015700000413FF4D5AF0B0C06BF09044FF0100C2F
:101580004FF0000C0B0E04BF09020CF1080C0B0FFE
:1015900004BF09010CF1040C8B0F04BF89000CF18E
:1015A000020CCB0F04BF49000CF1010CCCF120035D
:1015B000A0EB0C0022FA03F302FA0CF241EA030159
:1015C00000F10100704720F07F4C80EA030023F017
:1015D0007F47ACEB070303F57C5300F0004003F1B9
:1015E000FF032DE980494FEA154B09B44FEA144334
:1015F00025EA0B4E24EA03480FF2042606EB1327D4
:1016000049083E785FEA320203FB0667C7F5000728
:1016100007FB06F64FEA54374FEAD64606F10206B4
:1016200007FB066CCCF1005C4FEA1C472CEA074C28
:1016300007FB06F40CFB06F504EB15464FEA96167D
:1016400034BF00204FF000404FEAD13706FB07FCC3
:101650004FEA1C4C0CFB0BF7D21B03FB0CF761EBA6
:1016600007010CFB0EF7B0EB074072EB17420CFBC7
:1016700008F734BFA2EB0742B2EB074261EB174118
:101680004FEA0C444FEA910706FB07FC4FEA1C4C5B
:101690000CFB0BF7B0EBC74072EB573203FB0CF7B8
:1016A00034BFA2EBC742B2EBC74261EB57310CFB30
:1016B0000EF7B0EBC70072EB57720CFB08F734BFA4
:1016C000A2EBC702B2EBC70261EB5771039F4FEA6F
:1016D000816141EA921104EBCC044FEAD1374FEA21
:1016E000826206FB07FC42EA90124FEA80604FEAF2
:1016F0001C4C0CFB0BF7D21B03FB0CF761EB070137
:101700000CFB0EF7B0EB074072EB17420CFB08F72F
:1017100034BFA2EB0742B2EB074261EB17414FEA3D
:101720008C554FEA910704EB9C2406FB07FC4FEA1B
:101730001C4C0CFB0BF7B0EBC74072EB573203FBB2
:101740000CF734BFA2EBC742B2EBC74261EB573193
:101750000CFB0EF7B0EBC70072EB57720CFB08F7EF
:1017600034BFA2EBC702B2EBC70261EB577115EBB6
:101770004C254FEA816141EA92114FEA82624FEAB9
:10178000D13742EA901206FB07FC44F100044FEA0D
:1017900080604FEA1C4C0CFB0BF7D21B03FB0CF7D1
:1017A00061EB07010CFB0EF7B0EB074072EB174241
:1017B0000CFB08F734BFA2EB0742B2EB074261EB28
:1017C000174115EB1C154FEA813141EA92414FEA6E
:1017D000823242EA90424FEA80304FEA0C7644F17E
:1017E000000448EA03434EEA0B484FF0000EB2EB08
:1017F000080C71EB030724BF624639464EEB0E0E10
:101800004FF0000B0018524149414BEB0B0BB2EB70
:10181000080C71EB03077BF1000B24BF62463946CD
:101820004EEB0E0E4FF0000B0018524149414BEBAE
:101830000B0BB2EB080C71EB03077BF1000B24BF21
:10184000624639464EEB0E0E51EA020718BF46F0CB
:10185000010616EB0E7655F1000254F1000103D596
:10186000BDE88901BDE80088BDE88901BDE8004800
:10187000B619524141EB0101A3F101037047808089
:101880007F7E7D7C7B7A79787776767574737271DA
:1018900071706F6E6E6D6C6C6B6A6A696868676692
:1018A00066656464636362616160605F5F5E5E5D24
:1018B0005D5C5C5B5B5A5A59595858575756565598
:1018C00055555454535352525251515050504F4FFA
:1018D0004F4E4E4D4D4D4C4C4C4B4B4B4A4A4A494A
:1018E000494948484847474747464646454545448D
:1018F0004444444343434342424242414141002B1A
:1019000026D4770021D01CB54FEA370703B44FF037
:1019100010004FF010014FF000000FBCBDE8104068
:101920000BF1010BBBF1010F08BF5FEA170722BFE4
:1019300012F1010211F101014FF0004143F10003E6
:1019400000F0004043EA00007047F9D35708DAE797
:1019500046EA064613F1400F4FEA16461FDD13F123
:10196000200FDFBF16430A46002120335B42C8D058
:10197000C3F1200746EA064602FA07F74FEA164681
:1019800046EA0706C3F1200722FA03F201FA07F735
:1019900021FA03F14FF0000342EA0702B1E746EAF9
:1019A000020646EA06464FEA164646EA0106BCBF6C
:1019B00046EA0646360C4FF000034FF000024FF0A7
:1019C00000019EE72DE9C048934630B491E8380005
:1019D00007C831EA400C48BF34EA430C03D5FFF78F
:1019E000F2FDFFF78CFFF0BCBDE800882DE9C04890
:1019F000934630B491E8380007C810F0804F08BF14
:101A000013F0804F03D100F005F8FFF778FFF0BC2A
:101A1000BDE8008820F07F4780EA030023F07F4C78
:101A200007EB0C03A3F57C5300F00040A3F1FE0389
:101A300092F0000F00F0B38095F0000F00F0778077
:101A40002DE901494FEA11404FEA144621EA0048C6
:101A500000FB06FC24EA064708FB06F607FB08F82D
:101A600000FB07F718EB06484CEB164C4FEA124BFD
:101A700018EB07484FEA15464CEB174022EA0B4E8D
:101A80000BFB06FC25EA06470EFB06F607FB0EFEDF
:101A90000BFB07F71EEB064E4CEB164C4FF0000607
:101AA0001EEB074E4CEB174B18EB0B0840F10000F8
:101AB00018EB0E0B58EB000840F100008F1A4FF0A6
:101AC00000013CBFC943661B14BFB5EB040C0021E9
:101AD0003CBFC943F61B4FEA17444EEA8E0E27EA75
:101AE00004454FEA1C4704FB07622CEA074C05FB40
:101AF00007F70CFB05F604FB0CFC16EB074642EB64
:101B0000174216EB0C4642EB1C421BEB060658EB49
:101B10000202414146EA9E0601D5BDE80189B61997
:101B2000524141EB0101A3F10103BDE801894FEAF4
:101B300014454FEA114724EA054621EA074C05FB04
:101B400007F406FB07F70CFB06F105FB0CFC11EB99
:101B5000074144EB17444FEA124711EB0C4144EBA9
:101B60001C4422EA074C05FB07F206FB07F70CFBB7
:101B700006F605FB0CFC16EB074642EB174216EB8C
:101B80000C4642EB1C456A1854F1000148BF7047EF
:101B9000B619524141EB0101A3F10103704795F0E1
:101BA000000F37D04FEA11424FEA144721EA0246AC
:101BB00024EA074C02FB07F106FB07F70CFB06F4CF
:101BC00002FB0CFC14EB074441EB17414FEA1547AD
:101BD00014EB0C4441EB1C4125EA074C02FB07F5D2
:101BE00006FB07F70CFB06F602FB0CFC16EB0746A0
:101BF00045EB174516EB0C4645EB1C42121951F10B
:101C0000000148BF7047B619524141EB0101A3F1F1
:101C1000010370474FEA14454FEA114724EA05468D
:101C200021EA074C05FB07F106FB07F70CFB06F260
:101C30004FF0000605FB0CFC12EB074241EB17418D
:101C400012EB0C4251EB1C4148BF7047921841EB1C
:101C50000101A3F1010370472DE9FF4780460C9C69
:101C60001E4615460F46D0074FF0000A48D01B2DE0
:101C700046D2084615F039F8002872D0417A012D75
:101C800003D041F00101A94279D1016807F11400A4
:101C900004F077FE5FEA00091ED0D9F8041029B1DC
:101CA000D8F8000002F05CF8C9F804A0B889B04286
:101CB0000FD399F80A00C0070BD1012D13D0D9F822
:101CC0001C5048462DB102463346394640460094E2
:101CD000A847484607F03EFE04B039464046BDE8F6
:101CE000F0471DF0E3B8404639464A46052EF0D18C
:101CF00063882479CDE90034002305F072FBE8E71E
:101D0000B889B0423BD3E8077ED11B2D7CD2680650
:101D10007AD4062204200C2D4DD00ADCA5F1020154
:101D2000092912D2DFE801F08711151117112211CC
:101D30002D00122D65D004DC0E2D5AD0102D04D1AB
:101D400010E0162D67D0182D6DD0009200232A4682
:101D50001DE004230CE0CDE900240123324639467E
:101D60000AE00CE010200023324603E0082006239E
:101D700032463946CDE90004404619F04CF9BDE839
:101D8000FF874546032E07D000230A2200903946DC
:101D900040460BF01CFFF2E7B4F8010005228DE885
:101DA00005040A230022394640460DF032FF002880
:101DB000E5D0002315E04546052B03D000230C2277
:101DC0000090E5E734F8010F072264888DE80504E8
:101DD0000C230022394640460DF01BFF0028CED0D0
:101DE0002346024604B039462846BDE8F04705F0D0
:101DF0002DBC04B0234632464046BDE8F04719F0FA
:101E00003DBC2346324600E01EE004B04046BDE83B
:101E1000F04720F054BD04B0234632464046BDE8AA
:101E2000F04716F023BC04B0234632464046BDE8D6
:101E3000F04706F0BDBC04B0234632463946404662
:101E4000BDE8F04706F0EABBF01E1E2D39D00BDCD2
:101E50001B2D61D01D2A92D104B023463246404644
:101E6000BDE8F04711F028BD522D09D0D22A86D105
:101E700004B0234632464046BDE8F0471EF0B8BAEB
:101E8000042E88D3B4F8013085B2002B90D05220B4
:101E90000A21CDE9001056460022CDF808A03946A7
:101EA00040460DF013FF002899D0E41CCDE90065F1
:101EB000CDE90246024600233946404605F003FCC0
:101EC0005DE74546012EFBD107F110000F210446C6
:101ED0001CF0A1FC0028F3D00168204604F051FD5D
:101EE000040012D0616821B1286801F039FFC4F8FC
:101EF00004A0A07AC00705D100232246394628460F
:101F000005F08BFB204607F025FD04B03946284636
:101F1000BDE8F0471CF0E4BF4546032ED0D3B4F82B
:101F2000013086B2ADF80030404606226B46E41C14
:101F300007F0A1F928B1142141804168CE814168A0
:101F40000C61014604B02846BDE8F04705F06DBAC3
:101F500010B500280ED00446407E410705D520F07C
:101F60000400607620461CF0D3FF2046BDE81040F8
:101F700003F0C8B910BD0000084910B5097851B187
:101F800048B10146054808301CF07EFA002803D00D
:101F9000017B002900D0002010BD00000C020020B1
:101FA00070B50C4605000ED06CB11046FFF7E4FF8B
:101FB0002860002804D0426C1AB1506920600120CA
:101FC00070BD19F013FF002070BD70B505461E46A8
:101FD0000C461046FFF7D0FF286098B1426C72B1F2
:101FE000314602F11C001CF029FA206008B10024DF
:101FF0000AE04FF0FF34286819F0F8FE04E06FF0B3
:102000003704F9E76FF00104204670BD70B50D4646
:102010000446FFF7C5FFE8B12268C2B1286898B14D
:10202000C08B000405D5104619F0E1FE6FF0670083
:1020300070BD92F828100020C907F9D1104619F098
:10204000D6FE6FF0770070BD104619F0D0FE6FF02D
:10205000370070BD6FF0010070BD10B50446084632
:10206000FFF78AFF206040B1416C09B1002406E00F
:102070006FF0370419F0BAFE01E06FF0010420465A
:1020800010BD2DE9F04114460D4606461A46DDF80E
:102090001880FFF7BBFF07000BD128684146583076
:1020A0001CF0EFFA206020B9306819F0A0FE6FF044
:1020B00061073846BDE8F0812DE9F04114460D4630
:1020C00006461A46DDF81880FFF7A0FF07000AD180
:1020D0002868414658301CF0DCFA206018B9306896
:1020E00019F085FE7F1E3846BDE8F0812DE9FC41E0
:1020F0000D461C4690460646114600F043F8070080
:1021000010D1306818231430CDE90004002201A951
:10211000072001F076FD286020B9404601F042FE1C
:102120006FF47C773846BDE8FC8100002DE9F04172
:102130000C461F46154606461946DDF8188000F085
:1021400021F800280DD1206028600CE041461030B5
:102150001CF057FB286030B1206860B1286850B18E
:102160000020BDE8F0813068216814300EF0B6F828
:1021700020600028EAD1384601F014FE0048F0E75C
:102180000CFCFFFF70B506460D46084601F000FD49
:1021900010B10B4C204670BD01F0F4F96FF47A7465
:1021A00050B1294607481CF03CFA306000B10024C9
:1021B00001F013FD002CEDD0284601F0F3FDE9E716
:1021C00014FCFFFF5002002070B505460C46104677
:1021D000FFF7D2FE286050B1806B206008B1002468
:1021E00007E06FF01904286819F000FE01E06FF0B5
:1021F0000104204670BD10B50A460446062102F1CE
:1022000028001CF05DF9002806D104F15400BDE857
:10221000104005211CF054B910BD70B505460C46A0
:102220001046FFF7A9FE286050B1C06C206008B1CD
:10223000002407E06FF04204286819F0D7FD01E0A0
:102240006FF00104204670BD10B504460846FFF744
:1022500093FE206040B1016C09B1002406E06FF0EC
:10226000310419F0C3FD01E06FF00104204610BDF8
:1022700010B504460846FFF77FFE206040B1816C30
:1022800009B1002406E06FF0540419F0AFFD01E03D
:102290006FF00104204610BD70B505461E460C4681
:1022A0001046FFF769FE286098B1826C72B1314622
:1022B00002F110001CF0F7F9206008B100240AE0D8
:1022C0004FF0FF34286819F091FD04E06FF05404DA
:1022D000F9E76FF00104204670BD000070B50D46AF
:1022E0000646002401F054FC28BB01F04BF9F8B17C
:1022F0001249286860B1012811D8401E51F83020D9
:10230000B2420CD101EBC000416841B1044606E085
:10231000002201EBC200406828B1521CF9D001F044
:102320005CFC2CB107E0501C01EBC2042860F6E70E
:10233000304601F037FD204670BD00007C020020D1
:1023400008B50346009114220021052001F052F93E
:1023500008BD000030B503004FF000000DD061B1A2
:10236000074D6A6A412A08D2064C44F8323004EB21
:10237000C203521C59606A6230BD012030BD0000AA
:1023800000000020E4030020F8B50C464A78064619
:102390000025491D1CF0DEF838B9002133462422FF
:1023A0000846009401F026F905462846F8BD08B510
:1023B0000346009140220621032001F01BF908BDCD
:1023C0002DE9F04117460E4605004FF0000823D0D6
:1023D00016B30FB32968E868441AA868A04200D26F
:1023E0000446B44200D93446B4B105F110000844A3
:1023F0002246394601F046FE2868361B20442860F4
:10240000A968A044091BA960E9682744884201D350
:1024100000202860002EDDD14046BDE8F0810EB5D9
:102420002C22CDE9002030230291122203211846EC
:1024300001F0AAF80EBD08B503460091282202213A
:10244000052001F0D7F808BD70B50D4606004FF025
:10245000000434D055B32888B0F5706F2FD205F141
:10246000100003F0B6FB08BB05F1090003F0B1FB57
:10247000E0B9302001F0DAFC040020D030222946F7
:10248000FEF78AF80020E0623568BDB104F1090664
:10249000314605F1090003F05BFB18B92888218853
:1024A000884204D1204607F09BF9002407E0E86A3F
:1024B00008B10546ECE714B1EC6200E03460204658
:1024C00070BD3EB50C0029D0216839B31821CDE983
:1024D00000100294A0681C2300224068072120F00D
:1024E0000040273001F050F8050018D005F11C001D
:1024F000A860A16809782977A068406820F00042A8
:10250000A8684260A168A8684B68002B01DA896856
:1025100000E00831083001F0B5FD00E00025284654
:102520003EBD08B50346009170220021072001F04E
:1025300061F808BD10B5B0B1A9B10022CA62026845
:1025400072B10B791079834203D148885488A04234
:1025500009D0D06A08B10246F4E721B1D16200E0A7
:102560000160012010BD002010BD10B5C8B1D9B167
:1025700000228A61026892B10B881088834207D1D9
:1025800088789478A04203D188899489A0420BD09E
:10259000906908B10246F0E731B1916102E0016053
:1025A00000E009B1012010BD002010BD08B50346B0
:1025B000009110220421032001F01CF808BD70B521
:1025C000002328B321B34A680AB1CA6802B38A68F3
:1025D0000AB10A69E2B100224A610268144601E0C8
:1025E000134652696AB115880E88B542F8D32A0499
:1025F000B2EB064F0CD013B15869486102E04C6150
:1026000002E00BB1596100E0016009B1012070BD29
:10261000002070BD08B5034600912022002107204C
:1026200000F0E8FF08BD2DE9F84F1546814650F847
:10263000342F0C466FF47D7701264FF6FF7A6FF446
:102640007B7B0090CAB34FF00008414623E08889A5
:10265000A38A821B9BB29A4219DB7DB12A88B242BF
:1026600015D36A88824212D22888A0816888E081C6
:10267000B8F1000F07D0C8F8204006E0A681A08A74
:10268000761E3044F3E7C9F83440216232E0C8894D
:102690008846401C86B200980DF09CFE0100D6D101
:1026A000BF422AD16069AAEB060283B29A4224DBB8
:1026B00025B12888B04212D21FE006E0A681761E1E
:1026C000304411E0A08168880EE0A08A4FF6FE72C7
:1026D00080B2904211DC35B1288801280DD36A8878
:1026E0005245EFD909E0A681E08121460098FFF725
:1026F00091FF08B1002700E05F463846BDE8F88F3B
:1027000008B50346009108220021042000F072FF62
:1027100008BD00002DE9F04100241F460E46154675
:10272000804604291FD8F5B111461FF0EDFFD0B146
:102730004046FFF721FCB0B10C49204604EB4402AF
:1027400011F82220B24205D104EB440001EB8000D5
:10275000406802E0641C052CF0D3874202D2C01B03
:10276000441900E02C462046BDE8F08164F40208DC
:102770002DE9F043DFF8BC91002695B0D9F81C2074
:102780000446002A7BD0B71F84B1606870B121680D
:10279000351F012906D0022908DB206988B10128EC
:1027A0000FD003E0A06898B1012825D062A005F001
:1027B000A7FC68A005F0A4FC754805F0A1FC3C4608
:1027C000B3E0A36823B1022916DB01280AD013E085
:1027D000104608F0A4FD040002D001466DA09AE066
:1027E00073A09DE00126606901F018FD0C281CD340
:1027F0000BA960691EF090F81F22002103A801F0C8
:1028000043FC0221DFF82C818DF80C1001228DF899
:102810000D20002408F128088DF80E4098F80100DA
:1028200002280DD001280ED00FE03C4642A005F052
:1028300067FC48A005F064FC554805F061FC74E0B5
:102840008DF80E1001E08DF80E20032103AA4F46EB
:10285000D9F81C000AF03FFD010001D05FA05AE04A
:102860001F22002103A801F00FFC67A001F0D6FC95
:1028700002461D2804DA09208DF80D0004E052E01C
:1028800008208DF80D001D22501C8DF80C005EA153
:102890000DF10E0001F0F6FB9DF80C1003AA491C87
:1028A000F8690AF08FFD010001D05AA033E007203B
:1028B0008DF844006420ADF840008DF84540C820F4
:1028C0008DF84640ADF8420098F800008DF83400CD
:1028D0008DF835608DF836408DF837400E948DF8C0
:1028E0003C405EB1DDE90B1202ABF86910F041FA31
:1028F0009DF80810411801D051A00CE05748CDE9CF
:1029000000040DAB10AA0121F86908F031FD0400A4
:1029100005D0014652A004F0FBFF2C4605E057A06D
:1029200001F0BAFB01E06FF0070415B02046BDE8E6
:10293000F0830000000000204164766572746973C2
:10294000654C45205B30203D2044697361626C65B5
:102950005D2000004164766572746973654C4520A2
:102960005B31203D20456E61626C655D205B3020EF
:102970003D205075626C6963202041646472657308
:1029800073284F7074696F6E616C295D00000000E0
:102990009C0D03084741505F4C455F41647665726A
:1029A000746973696E675F44697361626C65000086
:1029B0002020204741505F4C455F4164766572742A
:1029C0006973696E675F44697361626C65207375D2
:1029D00063636573732E0D0A000000004741505F6A
:1029E0004C455F5365745F416476657274697369C1
:1029F0006E675F44617461286474416476657274C3
:102A00006973696E672900005350504C4544656DE9
:102A10006F0000004741505F4C455F5365745F4154
:102A200064766572746973696E675F446174612866
:102A300064745363616E526573706F6E73652900C1
:102A40004843495F4C455F5365745F52616E646FE4
:102A50006D5F4164647265737300000039BB0008E8
:102A60004741505F4C455F41647665727469736994
:102A70006E675F456E61626C650000002020204734
:102A800041505F4C455F4164766572746973696E4D
:102A9000675F456E61626C65207375636365737310
:102AA0002E0D0A0070B50446C0690D4608B100201D
:102AB00070BD782001F0BAF9E0610028F8D07822E2
:102AC000002101F0E1FAE0690571012070BD00000C
:102AD00030B5044681B10022084B104633F832501D
:102AE000A54205D103EBC20040680860012030BD5B
:102AF000521C1E2AF2D330BD002030BD84000020BD
:102B0000002800D001207047002800D00120704725
:102B10001CB5080016D04368042B13D392B1418929
:102B200069B1091D8B420AD301218DF80010019073
:102B30006946104601F05CF9002802D1019801F0C5
:102B400033FA1CBD0028FAD11CBD1FB50C0001468C
:102B500042D0207804280BD0032810D060680B46A0
:102B6000009001AA02A903A8FFF7E0FA58B130E0EB
:102B70000A4602A903A86368FFF7B8FAF6E703A8B4
:102B8000FFF700FBF2E7207830B101280BD00228D4
:102B90000FD0042819D112E0DDE902100023019AB8
:102BA00004F054FD11E0DDE90210227A05F044FE44
:102BB0000BE0DDE90210626805F091FD05E0DDE95A
:102BC00002100023012206F002F90398006801F0C8
:102BD000E9F8204601F0E8F91FBD00002DE9FE4F9D
:102BE0004FF000050C00AA46029274D060680228DB
:102BF00071D3DFF830C4227A04F10B06711EDCF8C1
:102C0000143004F10D0904F1100B4FF002081C2AD6
:102C100079D010DC5ED2DFE802F05D3E3E415F77A6
:102C200081888F979EA7AAADEF5DB2B7BBC3F0EDC9
:102C3000ECEBEAE9E8E7322A6FD012DCF94FA2F1B7
:102C40001D02152A7F68E5D2DFE802F0F694F5F45C
:102C5000F3F2F14444444444444444F0F0EFF2EECF
:102C6000ED003B2A6FD009DCA2F13302072AD1D252
:102C7000DFE802F0E8E7E6E530E4E3003E2A71D061
:102C800004DC3C2A6FD03D2A24D173E2FE2A01D015
:102C9000FF2AF9D1CBE1DCF8001048E00D2819D368
:102CA0000C21022001F0D7FD050013D06968A07A3D
:102CB00008706968B4F80B0048806868D4F80D1093
:102CC0004160B4F8111001816968E07C887269681C
:102CD000207DC872AEE2ACE20C28FBD30A210320AF
:102CE00001F0B9FD0500F5D06868D4F80A1001605C
:102CF000E18981806868218AC180A17C017269684C
:102D0000E07C487296E21FE10628E3D3A17A4B46A5
:102D100032460420D6E105468CE2DCE10528D9D311
:102D20000023A17A32460520CCE1DCF80C10002902
:102D3000D0D020468847EEE70628CBD3A17A4B4671
:102D400032460720BEE108E20528C3D30023A17A5A
:102D500032460820B6E10628BCD3A17A4B4632465B
:102D60000920AFE10EE2FFE1DCF80810DFE7DCF854
:102D70001010DCE7002BADD020469847CBE70328A6
:102D8000A8D3A17A0D20CDE00428A3D30E20E1E141
:102D90000A289FD3A17A04F1110332460F20C9E11A
:102DA000032897D3A07A464608EB8001102001F053
:102DB00052FD05008ED06968A07A087000200423B7
:102DC0000DE004EB800106EB800C31F80B7F22F85C
:102DD0000C706A6803EB80074988D153401C6A680D
:102DE00011788142EDD824E29FE097E083E069E02A
:102DF00062E05BE027E000E02FE108288CD30821A7
:102E0000112001F028FD050086D06968A07A0870BD
:102E10006968B4F80B0048806968607B087169686C
:102E2000E089C88006E250E146E127E1FCE0DAE013
:102E3000D4E09EE097E090E089E088E17DE173E1F5
:102E40006CE165E15FE10328ECD3A07A012700EB98
:102E5000400101EBC00007EB4001122001F0FBFC38
:102E60000500DFD06968A07A002608704FF00708D7
:102E700017E006EB460000EBC60007EB40020A44F1
:102E800004EB400108EB4000D1F80B301360B1F8BF
:102E90000F3093806B68102218441131FDF7F5FA5A
:102EA000761C69680878B042E3D8C2E10828B9D333
:102EB00000231A46132062E10828B3D300231A46E0
:102EC00014205CE11828ADD31721152001F0C3FCB4
:102ED0000500A7D06868D4F80A1010220160E189C3
:102EE000818068685946801DFDF7CFFA696894F8BB
:102EF000200088759EE1657A0F461620A91C01F016
:102F0000AAFC060008D0706805802DB170682A46BA
:102F10003946801C01F0B6F835468BE10328E9D329
:102F2000A17A172001F03EFCF5E60528E2D3042142
:102F3000182001F090FC0500DCD0696860890880E9
:102F40006968207B887075E1DCF81810EFE60728C7
:102F5000D0D34B4632461A20F6E00928CAD30122C4
:102F60005B461C200BE10928C4D301225B461D20CF
:102F700005E11828BED31821212001F06CFC0500C2
:102F8000B8D06968A07A08706968B4F80B00488006
:102F90006968607B08716968A07B48716968E07B3B
:102FA0008871207CD4F8111040EA0120696888609B
:102FB000207DD4F8151040EA01206968C860207EA1
:102FC000D4F8191040EA012069680861207FD4F81C
:102FD0001D1040EA0120696848612BE1002F89D06B
:102FE0002046B84797E600250F281AD30E21232044
:102FF00001F031FC050014D06968A07A0870696896
:10300000B4F80B0048806968607B08716968A07B30
:1030100048712046696850F80F2F41F8062F406824
:10302000486007E12C6E0020DCF81C107FE6FF2AC8
:103030000ED01E20667A0F46314601F00CFC0500CA
:1030400005D03EB132463946686801F01BF8F1E020
:103050001F20EFE7C5F804A0ECE006280DD3B4F874
:103060000B00A0F54061033907D1607B002804D133
:10307000202001F0F0FB0500ECD1DBE00D2841D36E
:103080000C21262001F0E7FB05003BD06968A07AFF
:1030900008706968B4F80B0048806968B4F80D00DE
:1030A00088806968B4F80F00C8806968B4F81100B6
:1030B0000881B4F81300B3E0052823D3A17A0023D4
:1030C0003246282001F092FB25E608281AD3002377
:1030D0001A46292053E00B2814D309212A2001F095
:1030E000BAFB05000ED06868D4F80A100160E189C7
:1030F00081806968207C88716968607CC8716968B2
:10310000A07C087296E00C286ED35A462B2028E04B
:10311000082869D300231A462C2030E0082863D3FE
:1031200000231A462D202AE009285DD3A17A002326
:1031300032462E2001F040FBEDE506287AD30A4600
:1031400004F10C0300212F2001F067FBE3E50428C4
:1031500070D3302001F08EFBDDE50C286AD35A468F
:10316000312001F0E6FAD6E5092863D301225B4657
:10317000322004E010285DD35B460822332001F0A2
:10318000F2FAC8E5032855D3A17A062951D2DFE81F
:1031900001F050032C2F4D4A15284BD32C214220EF
:1031A00001F059FB050045D0696881F800A0696805
:1031B000E07A88706968A08988806968A07B8871D6
:1031C0006968E07BC871686821698160A18A818132
:1031D0006968E08AC8816968208B08826968608BA9
:1031E00048826968207F087524E0DCF824109EE599
:1031F0000C281FD32C21422001F02DFB050019D0F3
:10320000696881F800806968E07A88706968A089D7
:1032100088806968E089C8806968208A0881608A36
:103220006968488106E0DCF8201080E5DCF82810A9
:103230007DE52CB12078000602D4204600F0B4FED3
:10324000002D0BD08DF800A069460195029800F082
:10325000CFFD002802D1019800F0A6FEBDE8FE8F48
:103260001FB50C00034612D02088009001AA02A9C5
:1032700003A8FEF721FF38B9DDE90110E27804F078
:1032800057F9039818F0B2FD204600F08DFE1FBDDF
:103290001CB5080016D04368032B13D392B1817A72
:1032A00069B1C91C8B420AD302218DF8001001902C
:1032B0006946104600F09CFD002802D1019800F0FC
:1032C00073FE1CBD0028FAD11CBD00002DE9F04F93
:1032D000CC6980468DB020791546894660B198F852
:1032E0001C00012802D16079C00705D06FF0760577
:1032F0000DB02846BDE8F08F04F1620010220021D5
:10330000064600F0C1FE28784FF0000A012806D0DA
:10331000032812D0042808D04FF0FF35E8E7102228
:10332000291D3046FDF7B1F816E084F862A084F854
:1033300063A0504684F864A00CE0287984F8620009
:10334000A888000A84F863006868000C84F86400A8
:103350006868000E84F8650004F13206002508F163
:10336000440B5946D8F800001FF0EEFE070005D1C7
:1033700008225946304600F085FE08366D1C022DA5
:1033800001D2002FEDD03D00B2D16A4649464046F9
:1033900005F052FF08AA6946404619F061F9050098
:1033A000A6D1207950B16079102240F001006071FF
:1033B00008A904F12200FDF768F899E7216829B10E
:1033C000D8F8000000F0FEFEC4F800A008AA4946A4
:1033D000404600F056FF05008AD1B9F8001047F2C8
:1033E0003053034AD8F8000000F0B0FE20607FE7B9
:1033F000C90F02082DE9F04113460646002218784D
:103400000D461446092849D2DFE800F0050E380BB6
:10341000123645454500298830681FF04BFE0746A7
:103420003EE00122042406E02AB90222052402E03B
:103430000AB90822062400232946304600F036FF48
:1034400007002DD1042000F0F1FC07006FF04108C7
:1034500010D028883880FC700020B8703A46124995
:10346000306800F0BBFB002801DD002718E038467B
:1034700000F09AFD474613E0082201E002B9052258
:1034800001232946304600F011FF070008D12846E5
:1034900006F00EFA04E06FF0760701E04FF0FF3718
:1034A0003846BDE8F081000061320008124910B5CD
:1034B000CA696FF0050422B10A7922B10F4800F001
:1034C000EBFD204610BD58B10268002A08DD806877
:1034D00050B907E0887110F0FF0F07D008A106E08F
:1034E000887908B10020F5E70120F3E706A109A0DB
:1034F00000F0D2FD002010BD0000002050040308A1
:103500004143544956450000494E414354495645AC
:103510000000000043757272656E74204175746F0F
:103520006D617469632052656164204D6F6465202C
:1035300073657420746F3A2025732E0D0A00000005
:103540007FB51446C2B2C0F30723C0F30745CDE9E7
:103550000232000ECDE90005CBB2C1F3072202A171
:10356000204600F0E9FD7FBD307825303258253007
:1035700032582530325825303258253032582530CF
:1035800032580000012070472DE9F0478A4608A90B
:103590001D4691E8C00290460024F8B1F5B1A8425A
:1035A00025D3DFB15FEA090121D000F03FFC040020
:1035B0001DD02A46494600F065FD0020A0513D6817
:1035C000A5B104EB08073A4605EB0801504602F0A6
:1035D000DBFA20B1204600F0E7FC002407E0A85900
:1035E00008B10546EFE714B1AC5100E03C6020465D
:1035F000BDE8F0872DE9F0471746089D89468246C9
:1036000073B16DB101260020E8511C688CB105EB47
:103610000908424604EB0901504602F0B5FA08B128
:10362000002607E0E05908B10446F2E716B1E5517B
:1036300000E01D603046BDE8F0872DE9FF411E46E1
:103640005FEA000832D0FEF797FC05002BD0A8698E
:103650000027F8B1182000F0E9FB040017D027700C
:103660000C20606004F10C00A0600199E160BDF8DD
:1036700008102182032066613070D5E906322146A8
:10368000404698470025204600F08EFC10E06FF081
:1036900027050DE0287D042802D36FF03C0507E0E4
:1036A0003770002504E06FF0010501E04FF0FF35B1
:1036B00004B02846BDE8F0812DE9F0470024DDF88C
:1036C000208081461D4692460F4626465FEA080046
:1036D00020D0FFB1B9F1000F1CD0D8F8004001E0B4
:1036E00026466459B4B1B9F1060F0BD004EB0A01B8
:1036F0003A46484602F048FA0028F1D02EB1605907
:10370000705105E0BC42EBD1F8E76159C8F80010F0
:10371000002060512046BDE8F0872DE9F0410E0001
:1037200007462ED0FEF728FC050027D0A86A3042B5
:103730001ED0C00705D00021384608F0C6F90400A5
:1037400009D1314638460FF017FE08B1002401E0D8
:103750006FF0390444B195F82800C00713D0012157
:10376000384608F0B2F90EE0A86AB043A8620AE051
:1037700010B16FF0660406E0002404E06FF001046D
:1037800001E04FF0FF342046BDE8F08170B50D0038
:10379000064624D0FEF7F0FB04001DD0A16A21B13B
:1037A0003046FFF7BAFF002815D1E80705D0012100
:1037B000304608F08AF900280DD1294630460FF02E
:1037C00001FE08B1002001E06FF06600002802D180
:1037D000A16A2943A16270BD6FF0010070BD4FF076
:1037E000FF3070BD3EB50C00054622D0024602A94E
:1037F00001A8A368FEF7E9FB00281AD12078A8B930
:103800000198406C806C68B1029901208870019821
:10381000416CC86C00908B6CA168284606C906F004
:1038200031FE38B10320A16889680870019818F04A
:10383000DDFA3EBD0120F6E770B50E46050009D061
:103840002C6803E02046A45900F005F8002CF9D1BB
:103850000020286070BD002801D000F0A5BB704793
:1038600010B504460020002B09D0062C07D118689B
:10387000002904D0002802D088428058FAD110BD17
:103880002DE9F04FDFF80483814687B098F80000F7
:103890000F466FF0020528B910F0D6F898F800002E
:1038A000002848D0B9F1000F7ED000F0C9FB48468F
:1038B0000FF044FE6FF06406002876D040F27C40A2
:1038C00000F0B4FA040071D05C22002100F0DCFBAF
:1038D0004FF48460E06204F15C00206348460FF01E
:1038E0005FFA606000287DDD83460FF0AFFD0028A1
:1038F00079D0D8F804004146401CC8F8040001D52E
:1039000001204860A14B2060083358220021072085
:103910000094FFF76FFE002866D020680FF0FEF8D5
:1039200050B16FF0030599482168083002F0EDFEB0
:103930000446002D72DB24E104A920681FF084FEF8
:1039400000286CD110F0A2F80CF03AFA8146203031
:1039500000F06CFA06004FF0000A36D00CF032FA94
:10396000014606F120004A46009000F08BFB9DF8CE
:10397000100070779DF8110030779DF81200F076F6
:103980009DF81300B0769DF8140070769DF8150030
:10399000307606A80CF012FA009ACDF800A0039633
:1039A000CDE90129062202E0E1E0DEE0DAE00121D2
:1039B00006F118030CF0F1F9002803DB307BC00698
:1039C00000D50025304600F0EFFA012001F0DAFDC5
:1039D000002D7DD100262568F8070ED0002D5ADD78
:1039E000B80702E0BBE0AAE0A6E02AD4206818F0FD
:1039F0005FFB20B36FF005054DE0284610F07CFF1B
:103A000010B16FF0060546E00126780709D420685A
:103A100018F0D2FD20B16FF008053CE090E066E0C0
:103A20000326002D37DD3807DAD4206817F03EF979
:103A300010B16FF007052EE046F00406D0E746F01F
:103A40000806F80408D4206807F022FB10B16FF0D4
:103A5000040520E046F01006F8075FD1B8045DD4F5
:103A6000700705D5B00703D520681AF0C3F810B168
:103A70006FF009050FE046F0200678044ED4700779
:103A800007D5B00705D5B00603D520680CF037F888
:103A9000C0B36FF00A05300602D5206813F022F992
:103AA000700602D520680CF015F8B00602D5206823
:103AB00019F0C5FBF00602D5206806F043FE70073A
:103AC00002D5206816F040FEB00704D5206800E05B
:103AD0000BE018F074FC300702D5206818F0A2FA49
:103AE000F00702D0206810F09DF8002D49DAD4E9E3
:103AF00000100FF005FD20680DF0B8FD002DFFF659
:103B000012AF3EE0FFE746F04006380406D42068D6
:103B100013F0E9F810B16FF00B05BCE7C4F828A06A
:103B2000207D06282DD320680FF0B8F948B3A06A8D
:103B300040F00100A06224E06FF0410500E035464E
:103B400058460DF0D9FD002D1BDA14B1204600F0C7
:103B50002BFA002D15DAD8F8080058B111E06FF0F3
:103B60000D05F3E76FF02705F5E73546F3E74FF06E
:103B7000FF35F0E705480C3005F0DCFC002000F0D4
:103B800081F907B02846BDE8F08F00000C02002044
:103B90000020704710B50C0009D0FEF7EDF918B100
:103BA000806A2060002010BD6FF0010010BD4FF052
:103BB000FF3010BD70B515460E460024FEF7DCF947
:103BC00038B1816911B16FF0140404E0C0E90665F1
:103BD00001E06FF00104204670BD704770B51646D5
:103BE0000D4604000BD0FEF7C7F9002808D035B108
:103BF000324629462046BDE870400FF036BA002014
:103C000070BD2DE9F041804606981D4616460F46C8
:103C1000002470B16FB1B8F1000F0AD0046800E061
:103C2000645934B1A1193A46404601F0ADFF00286D
:103C3000F6D02046BDE8F08170B5254D06462878BF
:103C400000280CD0002E0AD0314605F108001AF0E9
:103C50001BFC040003D0607B10B10120207370BDF9
:103C6000304613F03FF830460BF034FF304619F081
:103C7000E6FA304606F066FD304616F065FD304641
:103C800018F09DFB304618F0CDF930460FF0CAFF12
:103C9000314660680FF034FC30460DF0E7FC606898
:103CA0000DF02AFD0FF0D0FB09483146083002F034
:103CB0002CFD08B1FFF7CFFDA8680028CFD104483C
:103CC0000C3005F037FCBDE87040002000F0DAB899
:103CD0000C0200202DE9F843984615000E460746D1
:103CE00034D076B3FEF748F960B3142000F09EF8A4
:103CF000040023D080C40020A4E82101394644F800
:103D000010093346144A084600F020FA6FF04105C6
:103D1000606078B1114B1022042107200094FFF756
:103D200069FC18B16568002D04DB11E03846616854
:103D300000F048FA204600F037F909E06FF0270557
:103D400006E003E0FFE76FF0010501E04FF0FF350B
:103D50002846BDE8F8830000910F020818020020F1
:103D60002DE9F0410E0007464FF0FF3414D0FEF766
:103D700003F978B131460A4802F0BDFC05000BD0CA
:103D80003146384600F01EFA00B100242846FFF7FD
:103D900062FD01E06FF001042046BDE8F081000003
:103DA00018020020704710B5FEF7E6F8002802D090
:103DB00000218161C16110BD70B50B4B1C7884B1CD
:103DC0005C68082C0DD000280AD0084D002605EBB1
:103DD0000415641CC5E90201C5E9006201205C60AC
:103DE00070BD002070BD0000D80100205465002087
:103DF00010B5040018D0B9B1D4E90202904213D230
:103E0000D4E90420236803FB020000F03BF920689A
:103E1000401C2060E168884201D100202060A06839
:103E2000401CA060012010BD002010BD01460148CB
:103E300012F027BE54150020F0B5104C0023184690
:103E40002478002C18D0002916D0002A14D00C4E4B
:103E50000027C3EBC30506EB8504D4F804C08C45EA
:103E600005D116F8255015B1C4E9037201205B1C79
:103E7000002801D1102BECD3F0BD000090020020EF
:103E8000606F002010B50021044800F037F80448A6
:103E90000021C1604160017010BD000025150208BD
:103EA0009002002070B50D46040012D08DB104FBC5
:103EB00005F01830FFF7BAFF002809D00021016093
:103EC00000F10802416082E8320000F1180141610E
:103ED00070BD002070BD00000248002141610170EA
:103EE00070470000D8010020034AD168D3685B1AEC
:103EF0008342FBD370470000D8010020F0B5154D78
:103F00002A78002A25D0002823D00022124C6B6882
:103F100009E000BF04EB0216B768874202D1F668D9
:103F20008E4202D0521C9A42F4D39A4211D2521CB1
:103F300018469A420BD204EB021050F81019016097
:103F400081698160C169C16041694160EFE7431ED9
:103F50006B60F0BDD80100205465002070B50D469F
:103F6000040019D09DB1A068002680B1D4E90420D6
:103F7000616801FB0200A8476068401C6060E1685E
:103F8000884200D16660A068401EA060EDE7204630
:103F9000BDE8704000F008B870BD00002DE9104089
:103FA00000F09AF8FCE700000146014812F0CFBD8E
:103FB000541500200148C06870470000D801002057
:103FC0002DE9FF411B4D002618B1006810B1686152
:103FD00000E06E61184C0127207878B941F2FC3876
:103FE00018220021204600F04FF8A4F8108004EBBE
:103FF0008800A4F812801030E0602770684616F040
:1040000075F900984FF47A71B0FBF1F0401EB0F1F1
:10401000807F09D24FF0E0214861084AF02082F801
:10402000140D8E6107200861C5E901672E612F70AC
:10403000BDE8FF81D8010020541500200FE000E00A
:1040400070B50C4D0024287890B9002001466860B6
:104050004FF4E072084800F017F8322200210748B8
:10406000FFF7AAFE10B10120287001E06FF00304F1
:10407000204670BD90020020606F002025150208C8
:10408000FCF794B9FCF701BA13460A461946FCF747
:10409000B5BAFCF73FBA00000FB410B5084CC0B079
:1040A0006069002808D043ABFF216846429AFCF7BC
:1040B00063F962696946904740B010BC5DF814FB33
:1040C000D801002003480078002802D000201DF00D
:1040D000C3B87047900200202DE9F0471048C76828
:1040E00001697E1A1AD00025DFF83890AA4680466A
:1040F0000EE000BF09EB05142068304420606168C1
:10410000884204D3D4E902108847C4F800A06D1C8B
:10411000D8F804008542EDD3C8F81070BDE8F087E8
:10412000D8010020546500200A46014601480BF0E2
:1041300029BF0000541500200FB410B504AA03993C
:10414000FCF708F910BC5DF814FB00002DE9FF5FD7
:10415000DFF868A08B4600259AF800109846914633
:104160002846002927D0B9F1000F24D0B8F1000F5C
:1041700021D0134FC5EBC50607EB86046168A9B9CA
:1041800017F8261091B90CF02BF960600099A16026
:10419000012107F82610C4F818900C34002184E897
:1041A0000209DAF80420521CCAF804206D1C002809
:1041B00001D1102DDED304B0BDE8F09F90020020A5
:1041C000606F0020F0B5124E002210463378002BAD
:1041D0001DD000291BD00F4D0027C2EBC20305EBF9
:1041E0008304D4F804C08C450CD115F823C0BCF16D
:1041F000000F07D0676005F82370A7607068401E45
:1042000070600120521C002801D1102AE5D3F0BDB6
:1042100090020020606F0020FCF7F4B8FCF716B99C
:1042200070B50B46040017D0B3B1A068A0B1D4E9B3
:1042300004206168012501FB02011846FFF722FFF7
:104240006068401C6060E168884201D100206060C5
:10425000A068401EA06000E00025284670BD70B533
:1042600080F828200D460446102219462930FCF714
:104270000CF929462046BDE87040002311221AF0AF
:10428000D3BA70B50446134603200D4684F82800BF
:104290001022194604F12900FCF7F7F829462046B8
:1042A000BDE87040012311221AF0BEBA70B5044671
:1042B000052084F828000D4684F829204BB1E869D0
:1042C00020B1016811B12068FFF77CFF284605F096
:1042D000EFFA29462046BDE87040012302221AF079
:1042E000A3BA2DE9F041044680F8282018781D462D
:1042F0008846052816D2DFE800F0030507090B0001
:10430000002006E0012004E0022002E0032000E09B
:10431000042084F829006A780121002032B184F851
:104320002A1005E04FF0FF30BDE8F08184F82A0044
:1043300084F82B00A878012801D184F82B10E878A4
:10434000002894F82B0002D040F0040001E020F097
:10435000040084F82B00287984F82C00207F05F1D4
:10436000080601280AD0022802D06FF06A00DBE7B5
:10437000304600F08AFA0746681D04E0681D00F028
:1043800084FA0746304600F080FA84F82D7084F8ED
:104390002E0041462046BDE8F041012307221AF0D5
:1043A00043BA70B5044604200D4684F82800C96954
:1043B000102204F129003231FCF767F82946204623
:1043C000BDE87040012311221AF02EBA30B40B243C
:1043D00080F82840002480F82940012A01D180F883
:1043E000292090F8292013B142F0040201E022F0C4
:1043F000040280F82920012330BC02221AF014BAEA
:104400002DE9F0411F46069E13468C4605466FF087
:104410000D040EB10A2200E009221946604600F0A0
:1044200071F92860C0B1406B81693868C1F80B0030
:10443000B888A1F80F000EB1307848742868094A8E
:10444000406B03460CF0C1FC002801DB002405E0B2
:10445000286817F0CBFC01E04FF0FF342046BDE8A0
:10446000F0810000810A02082DE9F0479946DDE954
:1044700008860746DDF828A013460C466FF00D05A8
:104480005FEA080000D0012030440930C2B219466A
:10449000204600F037F9386058B3406BD9F8001067
:1044A000B8F1000F8469C4F80B10B9F80400A4F83F
:1044B0000F0008D098F8000060745EB13246514693
:1044C00004F1120004E02EB13246514604F111000D
:1044D000FFF7D8FD3868094A2146406B03460CF0C7
:1044E00074FC002801DB002505E0386817F07EFC2D
:1044F00001E04FF0FF352846BDE8F087810A020849
:104500002DE9F0411E4613460F4605466FF00D0497
:1045100004221946384600F0F5F8286080B1406B57
:104520000A4A8169CE722868406B03460CF04DFC44
:10453000002801DB002405E0286817F057FC01E0A3
:104540004FF0FF342046BDE8F0810000810A0208E8
:104550002DE9F0471F00DDE9086913460C46804647
:104560006FF00D0501D0012000E000203044C01C98
:10457000C2B21946204600F0C5F8C8F8000010B3D2
:10458000406B84693FB13878E0725EB1324649468B
:1045900004F10C0004E02EB13246494604F10B0050
:1045A000FFF770FDD8F80000094A2146406B03462A
:1045B0000CF00BFC002801DB002506E0D8F8000019
:1045C00017F014FC01E04FF0FF352846BDE8F087F6
:1045D000810A02081CB5002300930193FFF7B8FF7E
:1045E0001CBD00002DE9F0411F46DDE9068413469D
:1045F0008C4606466FF00D050CB1092200E007223B
:104600001946604600F07EF83060E8B1406B816981
:10461000380ACF72087381F80D804FEA182088732A
:1046200024B12078C8732088000A08743068094AC9
:10463000406B03460CF0C9FB002801DB002505E0B8
:10464000306817F0D3FB01E04FF0FF352846BDE896
:10465000F0810000810A02082DE9F0411E46134650
:104660000F4605466FF00D0405221946384600F046
:1046700049F8286090B1406B0B4A8169300ACE72CC
:1046800008732868406B03460CF09FFB002801DB91
:10469000002405E0286817F0A9FB01E04FF0FF3483
:1046A0002046BDE8F0810000810A02082DE9F041B2
:1046B0001E4613468C4605466FF00D040622194629
:1046C0006046069F00F01EF8286098B1406B0C4AC7
:1046D0008169300A4F73CE7208732868406B0346B5
:1046E0000CF073FB002801DB002405E0286817F0BC
:1046F0007DFB01E04FF0FF342046BDE8F081000073
:10470000810A020870B514460D46FDF735FC0028F5
:104710000AD0416B49B18B69012119705C60290A8B
:104720001D725972E41E9C7270BD17F05FFB002071
:1047300070BD70B514000D4601D00C2100E00821B9
:1047400000F089F800280DD041682A68002C0A6022
:10475000AA888A8006D02178D4F8012041EA022173
:104760004268916070BD2DE9F0410F461E46154626
:10477000911D00F070F804000DD060683968016088
:10478000B98881803DB1012D08D060682A46314644
:10479000801DFFF777FC2046BDE8F0816168307826
:1047A0008871F8E710B50C46012100F054F8002894
:1047B00001D041680C7010BD70B51C0015460E4646
:1047C00001D0082100E0072100F045F800280CD0B6
:1047D0004168002C0E7041682A6841F8012FAA88B0
:1047E0008A8002D042682178D17170BD70B51C00FA
:1047F00015460E4601D0062100E0042100F02BF8FA
:10480000002809D04168002C0E7042682988518028
:1048100002D042682178117170BD70B51D461646F0
:104820000C0001D0062100E0042100F014F800285B
:1048300009D04CB1426821781170426831885180AA
:1048400042682988918070BD426831881180426831
:104850002988518070BD70B505460C4601F10800ED
:10486000FFF7E4FA002804D00570448000F1080145
:10487000416070BD10B50C460221FFF7ECFF002827
:1048800002D042682188118010BD08B500218DF842
:104890000010017811B101218DF80010417829B183
:1048A0009DF8001041F002018DF80010807828B1C9
:1048B0009DF8000040F004008DF800009DF8000015
:1048C00008BD30B414460D46DDE902210570447080
:1048D000240A847053B11C78C4701B881B0A0371AE
:1048E000002A0BD0002909D0401D04E0002A05D081
:1048F000002903D0C01C30BCFFF7C4BB30BC7047DC
:104900002DE9F0410D0004464FF0FF377ED084B30F
:10491000002614223146FFF7B7FBA879C00713D051
:10492000206840F001002060287809286ED2DFE876
:1049300000F005081D2124272A2D30004FF41660B1
:1049400001E04FF496506060A879800728D5206870
:1049500040F002002060687810F003001CD00128AD
:1049600030D002281AD0032850D12DE04FF4E15066
:10497000E9E74BE04FF41650E5E74FF49640E2E7E5
:104980004FF41640DFE74FF46140DCE74FF4E130CD
:10499000D9E74FF46130D6E7052000E00620A0609B
:1049A000A8794FF0000240074FF0010111D52068AF
:1049B00040F004002060687810F0040006D004285D
:1049C00024D105E00720EAE70820E8E7227300E0A9
:1049D0002173A879000725D5206840F008002060E1
:1049E000687800F03800182817D003DC38B10828A0
:1049F0000CD106E028280BD0382807D17BE0627361
:104A000010E0A879C00601D561730BE03E466FE067
:104A1000A879C006FAD5022003E0A879C006F5D52A
:104A200003206073A879800605D5206840F0100047
:104A30002060E878A073A879400605D5206840F08A
:104A4000200020602879E073E888C0050AD5206836
:104A500040F040002060A878C00703D0206940F0F3
:104A600001002061E88880050AD5206840F04000F8
:104A70002060A878800703D5206940F002002061FB
:104A8000E88840050AD5206840F040002060A878FA
:104A9000400703D5206940F004002061E888000544
:104AA0000AD5206840F040002060A878000703D5B0
:104AB000206940F008002061E888C0040AD5206819
:104AC00040F040002060A878C00603D5206940F07F
:104AD00010002061E88880040AD5206840F040007A
:104AE0002060A878800603D5206940F0200020616E
:104AF0003046BDE8F081A879C00687D5042090E74C
:104B00002DE9F041054647688C460D30069938443A
:104B100001262AB113B109B11C1D06E0042404E0EA
:104B200013B109B19C1C00E00224D5F808E0274429
:104B300077451CD880F800C04FEA1C2747704AB15F
:104B4000177887701288120AC2704BB141B11A46A9
:104B5000001D03E023B119B11A46801CFFF792FA39
:104B6000686820446860A9682044884200D900260B
:104B70003046BDE8F0812DE9F0410D4604004FF0CC
:104B8000FF3779D0002DFCD0002608223146FFF7F0
:104B90007BFA28783146C0074FF001024FF002033C
:104BA0004FF0030C2FD0E08840F00100E0806868EF
:104BB000B0F5964F23D00CDCB0F5166F16D0B0F5DB
:104BC000965F15D0B0F5E15F14D0B0F5165F53D104
:104BD00012E0B0F5164F14D0B0F5614F24D0B0F507
:104BE000E13F23D0B0F5613F46D121E021700AE0DA
:104BF000227008E0237006E084F800C003E004207F
:104C000000E005202070287880071BD5E08840F060
:104C10000200E080A86805280CD006280CD00728E0
:104C20000CD0082828D10BE00620EBE70720E9E7A5
:104C30000820E7E7617005E0637003E0627001E05F
:104C400084F801C0287840070BD5E08840F00400C4
:104C5000E080287B28B1012876D1607840F00400FC
:104C60006070287800071BD5E08840F00800E080DD
:104C7000697B052968D200E066E0DFE801F01103F6
:104C80000A575E0040F01000E080607840F00800B5
:104C900005E040F01000E080607840F0280060708F
:104CA0002878C00605D5E08840F02000E080A87B89
:104CB000E0702878800605D5E08840F04000E0806C
:104CC000E87B2071287840062DD5E08840F47C50A0
:104CD000E080287CC00703D0A07840F00100A070DD
:104CE000287C800703D5A07840F00200A070287CC3
:104CF000400703D5A07840F00400A070287C00078E
:104D000003D5A07840F00800A070287CC00603D529
:104D1000A07840F01000A070287C800603D5A07811
:104D200040F02000A0703046BDE8F08140F0100057
:104D3000E080607840F01800B1E740F01000E080BB
:104D4000607840F03800AAE73E46ECE7F0B506464A
:104D5000DDE9055CDDE907740A44002009322E8094
:104D6000964200D92A802A88093189B2511ACCF892
:104D70000010197891B108290ED15978D3F8022082
:104D800041EA022121605979D3F8062041EA022143
:104D900039602268914200D90520F0BD00212160D0
:104DA0003960F0BDF0B5002205460A4E10460A6093
:104DB00002EB420306EB83046768A46838440F687B
:104DC0003C440C6016F82330AB4202D0521C052A3A
:104DD000EED3F0BD64F40208F0B54FF6FF7641F271
:104DE00021070EE012F8014B002304F0010595EABB
:104DF000D03506EA400000D0784064085B1C082BE0
:104E0000F3D3491EEED2F0BD0B280BD9410003228B
:104E1000B1FBF2F0B1FBF2F302FB1311012900D94F
:104E2000401C704700EB80010A22B1FBF2F0B1FB9D
:104E3000F2F302FB13110529F2D2704710B50200FC
:104E400046D081B30B7803F0070003F0F803DB10C2
:104E5000092B3DD2DFE803F0050707131B0D1B1BD1
:104E60001B00012032E020B1012804D002282FD1FC
:104E700003E002202AE0032028E0052026E00128A4
:104E8000F9D00228F9D0042822D111201EE00528EB
:104E900004D0062808D007281AD10CE0022A17D31C
:104EA0004878801C11E013E0032A11D3B1F8010007
:104EB00040BAC01C09E0052A0AD3D1F801000979DB
:104EC00000BA20F0FF000843401D08B1904200D90D
:104ED000002010BD10B5FF22054C03E010F8013B87
:104EE0005340E25C491EF9D2C2F1FF0010BD000040
:104EF00090F502087CB51C4E0446F069002830D0BD
:104F00004CB32068002826DD606820B3FFF786F9DF
:104F10000C2820D3694660681BF0FEFCDDE9000127
:104F200003F09AFE6FF0030500280FDBC0EBC00012
:104F30000E4900EB400001EB0010D0E90012F069CF
:104F400000F03EF8002800D028467CBD08A061682B
:104F5000FFF7A2F8F8E711A0FFF79EF86FF0050041
:104F60007CBD6FF007007CBD0000002058060020CB
:104F70004E6F742063757272656E746C7920636F06
:104F80006E6E656374696E6720746F2042445F4182
:104F90004444522025732E0D0A00000055736167AA
:104FA000653A2043616E63656C436F6E6E65637432
:104FB0004C45205B42445F414444525D2E0D0A0043
:104FC0002DE9F0410C460700164635D014F0FF0FCE
:104FD0000ED1C4F3072058B9C4F3074040B9200EDE
:104FE00006D116F0FF0F03D1C6F30720002823D007
:104FF0001146204603F030FE002818DB32462146D9
:10500000104819F0D3FA30B10078C00703D00EA0D1
:10501000FFF742F812E0384606F096FB050004D090
:1050200001461948FFF738F808E018A0F0E71DA07E
:10503000FFF732F8002501E04FF0FF352846BDE8C4
:10504000F08100001800002043616E277420636126
:105050006E63656C20636F6E6E656374696F6E203E
:10506000726571756573742C20646576696365205B
:10507000616C726561647920636F6E6E65637465DF
:10508000642E0D0A000000000804030843616E63EB
:10509000656C207375636365737366756C2E0D0A9A
:1050A00000000000446576696365206973206E6FB7
:1050B0007420636F6E6E656374696E672E0D0A00EF
:1050C00070B5054609486FF00504007860B15DB120
:1050D000FEF758FA40B105482946083019F0DEF9C4
:1050E00000B10024FEF779FD204670BDA402002027
:1050F000124910B5C969F1B1B8B18168002914DB52
:10510000042912DC0D4A283231B1012904D00229C8
:1051100002D0032900D004219170006900B1012060
:10512000D07002F025FD002010BD0548FEF7B4FF49
:105130006FF0050010BD6FF0070010BD00000020EB
:10514000EC020308124910B5CA690024E2B1A8B103
:105150000268022A12DB8268002A0FDB032A0DDCB8
:1051600022B1012A02D0022A00D003224A7000692B
:1051700000B10120C87002F0FBFC07E0054802F016
:10518000BFFF6FF0050401E06FF00704204610BD7B
:1051900000000020B00C03082DE9FC471646DFF89C
:1051A00088900A9A1C000F4682464FF000081BD0D8
:1051B000E2B14FF6FF70824218D2206A18B1408ADD
:1051C000401E83B200E0B38A93420FD33968504641
:1051D000CDE9009109F0D0FD002807DD7860A08AB4
:1051E000F0824FF001081BE0B46A17E0246A15E072
:1051F000256A1DB1688A401E83B200E0B38AA08A86
:10520000401C81B2994208D8396882B2CDE9009138
:10521000504609F0B1FD0028E0DC2C46002CE7D117
:105220004046BDE8FC870000CDDC00087CB50C469C
:105230001D460968054BCDE90031938A2A4609F0DD
:10524000B1FD002801DD606000207CBDCDDC0008E0
:105250002DE9FF4F83B00C46109F92467878811C51
:1052600099424CD89B1EB3FBF0F100FB1131002991
:1052700045D1B3FBF0F606EB4600C000FEF7D6FDC5
:105280005FEA00083BD0B1B2CDE9001804235246D2
:105290002146039803F0B0FF5FEA000929D0444695
:1052A000BD1C4FF0000B1AE028882080B5F80300E1
:1052B000A080A878A0707878072802D0152804D09C
:1052C0000AE084F806B0022202E00120A071102258
:1052D000691DE01DFEF7D6FE787818340544761E69
:1052E000E2D20398DAF81830DAF82020006849464C
:1052F000984707B04046BDE8F04FFEF755BE07B0EF
:10530000BDE8F08F417E11F0060F06D10278032A26
:1053100003D1826A0AB982780AB1002204E0C9077F
:1053200001D000207047026C00211BF027B82DE946
:10533000F05F9A4615465FEA0108074678D0D8F82C
:105340000400002874D0A988491C89B2884227D259
:10535000E888C10705D1D8F8081040F0010029609D
:10536000E88098F80000800754D50024F86C10E01D
:10537000428852450BD102880A998A4207D1C188D6
:1053800042F211021140A1F50052103A0CD004462D
:10539000406910B1A979C907EAD1B8F1000F47D027
:1053A000A879C00744D038E00026B0F804B017E070
:1053B0000189B0F8069031448EB241690CB1616147
:1053C00000E0F964FEF7F0FD5FEA497004D50CB126
:1053D000606910E0F86C0EE00CB1606900E0F86CF8
:1053E00048B14288524506D102880A998A4202D1C0
:1053F00082885A45DCD0002ECBD0A988491E89B2BC
:10540000A980D8F804209142C3D2E98821F0010193
:10541000E980BEE7E888C10703D00020BDE8F09F1F
:1054200006E0D8F8081040F001002960E880B7E7EE
:105430000120F3E730B58DB0054604AACC6903F02E
:10544000FBFE04F1420005906A4604A9284617F0C5
:1054500007F9002861D19DF8001094F822209142AC
:1054600059D19DF8011094F82320914253D19DF811
:10547000021094F8242091424DD19DF8031094F825
:105480002520914247D19DF8041094F8262091429E
:1054900041D19DF8051094F8272091423BD19DF809
:1054A000061094F82820914235D19DF8071094F801
:1054B000292091422FD19DF8081094F82A2091427A
:1054C00029D19DF8091094F82B20914223D19DF801
:1054D0000A1094F82C2091421DD19DF80B1094F8DD
:1054E0002D20914217D19DF80C1094F82E20914256
:1054F00011D19DF80D1094F82F2091420BD19DF8F9
:105500000E1094F83020914205D19DF80F1094F8B8
:105510003120914201D04FF0FF300DB030BD70B559
:10552000002504468563403004F01EF9E06A002837
:1055300002D125636563E56370BD00002DE9F0418C
:10554000DFF83C80002798F8000098B1FEF71AF8C1
:1055500080B108F10806346807E02546646B2846E8
:1055600004F009F82846FEF71FFD002CF5D137603E
:10557000FEF733FBC8F8087088F80070BDE8F081CA
:10558000A4020020704770B50C00054612D0A07A26
:10559000012804D1E16C11B12868FEF713FEE188FF
:1055A00028461EF0F4FF214605F15400BDE8704086
:1055B00001F0DBB870BD10B500281BD0002919D050
:1055C0000A7ED20717D0002008648864C864486542
:1055D000C865086648628862C86108620863C86274
:1055E00048820875087348738873C87308744874D0
:1055F0000120886110BD0968103001F09FF9002872
:10560000F8D0BDE8104004F02AB970B50C4609691D
:105610001646054611B12868FEF7D4FD94F834000B
:1056200020B11EB1E188A86B1EF0BFFEA06A18B1C0
:10563000206B08B1FEF7B8FC2046BDE87040FEF7CD
:105640000AB90000034910B50220C8601CF006F832
:10565000002010BD000000202DE9FF4F85B05FEA5B
:10566000020812AADDF860B092E8E0029A465BD028
:10567000380059D00B4603A902A8059AFCF736FD5D
:10568000040052D10324BAF1000F00D0052445B123
:105690003EB103988089C01E80B2854200D905467C
:1056A0002C44039801F081F908B1002300E023465F
:1056B000DDE916120398143000F06CFF70B304613A
:1056C000A0F80C80C0F82090C0E9067BDDE90271EB
:1056D00089463146866A0446424653460EB9FE68FC
:1056E0000C36CDE90051617A3046FFF7EAF8F868E8
:1056F0000C30B0420FD10096208A224683B2494630
:1057000038461BF0A7F8050005D009F11400216800
:1057100001F06FF800E025682C4601E06FF47B741F
:105720000598FEF73FFB00E0024C09B02046BDE8BB
:10573000F08F000018FCFFFF2DE9F04387B01D46F5
:105740008146DDE91263DDE910C7BDF83800DDF8F8
:105750003C80E0B1854218D8002004461AB1107888
:1057600088B11024501C04970094CDE905630DF115
:10577000040E0EAB8EE801112A464846FFF76CFF77
:1057800007B0BDE8F0830224ECE70248F8E70148DF
:105790000830F5E710FCFFFF10B504460E4800780E
:1057A000002817D0002C15D0FDF7ECFE002811D0F2
:1057B00009482146083000F0B2FF0446FEF70DFA12
:1057C000002C07D0204603F0D6FE2046BDE810404E
:1057D000FEF7EABB10BD0000A40200202DE9F04155
:1057E00003F08CFA00282FDB00EBC000184D00EB13
:1057F000400605EB8604174F606870B1216911B14E
:10580000F86916F0ABFE55F82610F86917F04CFD54
:10581000002810DA014610A008E055F82610F869B3
:1058200017F022FD002806DA014611A002F070F8F8
:105830006FF0030500E0002520466C220021FEF7F2
:1058400023FC0FA0FEF728FC2846BDE8F0810000ED
:10585000EC050020000000205350505F436C6F7334
:10586000655F5365727665725F506F7274000000F9
:105870005350505F436C6F73655F506F72740000DC
:10588000506F727420436F6E7465787420436C653A
:10589000617265642E0D0A00094910B5C9690024BA
:1058A00051B118B1016809B1806801E0054800688C
:1058B00020B1FFF793FF01E06FF00704204610BD11
:1058C00000000020EC0500200B4910B5C969002438
:1058D00071B130B1016821B1806858B1FFF77EFF26
:1058E00008E00648016829B1406818B10846F5E7A4
:1058F0006FF00704204610BD00000020EC050020DA
:1059000070B5124C0025E069D8B1616909B104F0A5
:10591000D3FC216911B1E06909F0E6FFE06908F004
:10592000A7F9E069FEF788F9FEF7D6FA08A0FEF7B6
:10593000B3FB064838211830FDF77EFF0020E061F8
:1059400001E06FF00605284670BD00000000002051
:10595000537461636B2053687574646F776E2E0D9A
:105960000A00000070B505006FF001042FD0286810
:1059700068B3002608E02968885DA0F16102192A51
:1059800001D820388855761C2868FEF747FCB042BD
:10599000F1D811A0FEF742FC2B6802460EA1184672
:1059A000FEF76EFB80B1286803F0C0F8010010D04C
:1059B000281D884704000CD0E01C0AD014F10A0FFF
:1059C00007D06FF0030404E06FF0020401E06FF011
:1059D0000504204670BD00005155495400000000E8
:1059E00010B58CB001460024684600F063F800282A
:1059F0002EDB1C48FEF750FB6846FFF7B3FF10F1A3
:105A0000040F0AD010F1030F0BD010F1020F1AD1BE
:105A100015A00099FEF740FB15E019A0FEF73CFB2E
:105A200011E01C4CE068012802D0022804D006E0F6
:105A30000020FFF749FF02E00020FFF72DFF0020C4
:105A4000E0601CF025F91448FEF726FB012405E070
:105A50001148FEF721FB11A0FEF71EFB0CB02046FB
:105A600010BD000084F90108496E76616C696420FC
:105A7000436F6D6D616E643A2025732E0D0A000030
:105A800046756E6374696F6E204572726F722E0D6B
:105A90000A0000000000002000D101080D0A496E34
:105AA00076616C696420436F6D6D616E642E0D0AC2
:105AB000000000002DE9F04705000E464FF00007FA
:105AC00041D0C6B30846FEF7A9FBA0B33046FEF7A7
:105AD000A5FB30461AF05BFF0021C5E9000158B371
